{
  "contractName": "NFTify",
  "abi": [
    {
      "inputs": [],
      "stateMutability": "nonpayable",
      "type": "constructor"
    },
    {
      "anonymous": false,
      "inputs": [
        {
          "indexed": true,
          "internalType": "address",
          "name": "owner",
          "type": "address"
        },
        {
          "indexed": true,
          "internalType": "address",
          "name": "approved",
          "type": "address"
        },
        {
          "indexed": true,
          "internalType": "uint256",
          "name": "tokenId",
          "type": "uint256"
        }
      ],
      "name": "Approval",
      "type": "event"
    },
    {
      "anonymous": false,
      "inputs": [
        {
          "indexed": true,
          "internalType": "address",
          "name": "owner",
          "type": "address"
        },
        {
          "indexed": true,
          "internalType": "address",
          "name": "operator",
          "type": "address"
        },
        {
          "indexed": false,
          "internalType": "bool",
          "name": "approved",
          "type": "bool"
        }
      ],
      "name": "ApprovalForAll",
      "type": "event"
    },
    {
      "anonymous": false,
      "inputs": [
        {
          "indexed": true,
          "internalType": "address",
          "name": "from",
          "type": "address"
        },
        {
          "indexed": true,
          "internalType": "address",
          "name": "to",
          "type": "address"
        },
        {
          "indexed": true,
          "internalType": "uint256",
          "name": "tokenId",
          "type": "uint256"
        }
      ],
      "name": "Transfer",
      "type": "event"
    },
    {
      "inputs": [
        {
          "internalType": "address",
          "name": "to",
          "type": "address"
        },
        {
          "internalType": "uint256",
          "name": "tokenId",
          "type": "uint256"
        }
      ],
      "name": "approve",
      "outputs": [],
      "stateMutability": "nonpayable",
      "type": "function"
    },
    {
      "inputs": [
        {
          "internalType": "address",
          "name": "owner",
          "type": "address"
        }
      ],
      "name": "balanceOf",
      "outputs": [
        {
          "internalType": "uint256",
          "name": "",
          "type": "uint256"
        }
      ],
      "stateMutability": "view",
      "type": "function",
      "constant": true
    },
    {
      "inputs": [
        {
          "internalType": "uint256",
          "name": "tokenId",
          "type": "uint256"
        }
      ],
      "name": "getApproved",
      "outputs": [
        {
          "internalType": "address",
          "name": "",
          "type": "address"
        }
      ],
      "stateMutability": "view",
      "type": "function",
      "constant": true
    },
    {
      "inputs": [
        {
          "internalType": "address",
          "name": "owner",
          "type": "address"
        },
        {
          "internalType": "address",
          "name": "operator",
          "type": "address"
        }
      ],
      "name": "isApprovedForAll",
      "outputs": [
        {
          "internalType": "bool",
          "name": "",
          "type": "bool"
        }
      ],
      "stateMutability": "view",
      "type": "function",
      "constant": true
    },
    {
      "inputs": [],
      "name": "name",
      "outputs": [
        {
          "internalType": "string",
          "name": "",
          "type": "string"
        }
      ],
      "stateMutability": "view",
      "type": "function",
      "constant": true
    },
    {
      "inputs": [
        {
          "internalType": "uint256",
          "name": "tokenId",
          "type": "uint256"
        }
      ],
      "name": "ownerOf",
      "outputs": [
        {
          "internalType": "address",
          "name": "",
          "type": "address"
        }
      ],
      "stateMutability": "view",
      "type": "function",
      "constant": true
    },
    {
      "inputs": [
        {
          "internalType": "address",
          "name": "from",
          "type": "address"
        },
        {
          "internalType": "address",
          "name": "to",
          "type": "address"
        },
        {
          "internalType": "uint256",
          "name": "tokenId",
          "type": "uint256"
        }
      ],
      "name": "safeTransferFrom",
      "outputs": [],
      "stateMutability": "nonpayable",
      "type": "function"
    },
    {
      "inputs": [
        {
          "internalType": "address",
          "name": "from",
          "type": "address"
        },
        {
          "internalType": "address",
          "name": "to",
          "type": "address"
        },
        {
          "internalType": "uint256",
          "name": "tokenId",
          "type": "uint256"
        },
        {
          "internalType": "bytes",
          "name": "_data",
          "type": "bytes"
        }
      ],
      "name": "safeTransferFrom",
      "outputs": [],
      "stateMutability": "nonpayable",
      "type": "function"
    },
    {
      "inputs": [
        {
          "internalType": "address",
          "name": "operator",
          "type": "address"
        },
        {
          "internalType": "bool",
          "name": "approved",
          "type": "bool"
        }
      ],
      "name": "setApprovalForAll",
      "outputs": [],
      "stateMutability": "nonpayable",
      "type": "function"
    },
    {
      "inputs": [
        {
          "internalType": "bytes4",
          "name": "interfaceId",
          "type": "bytes4"
        }
      ],
      "name": "supportsInterface",
      "outputs": [
        {
          "internalType": "bool",
          "name": "",
          "type": "bool"
        }
      ],
      "stateMutability": "view",
      "type": "function",
      "constant": true
    },
    {
      "inputs": [],
      "name": "symbol",
      "outputs": [
        {
          "internalType": "string",
          "name": "",
          "type": "string"
        }
      ],
      "stateMutability": "view",
      "type": "function",
      "constant": true
    },
    {
      "inputs": [],
      "name": "tokenCounter",
      "outputs": [
        {
          "internalType": "uint256",
          "name": "",
          "type": "uint256"
        }
      ],
      "stateMutability": "view",
      "type": "function",
      "constant": true
    },
    {
      "inputs": [
        {
          "internalType": "uint256",
          "name": "tokenId",
          "type": "uint256"
        }
      ],
      "name": "tokenURI",
      "outputs": [
        {
          "internalType": "string",
          "name": "",
          "type": "string"
        }
      ],
      "stateMutability": "view",
      "type": "function",
      "constant": true
    },
    {
      "inputs": [
        {
          "internalType": "address",
          "name": "from",
          "type": "address"
        },
        {
          "internalType": "address",
          "name": "to",
          "type": "address"
        },
        {
          "internalType": "uint256",
          "name": "tokenId",
          "type": "uint256"
        }
      ],
      "name": "transferFrom",
      "outputs": [],
      "stateMutability": "nonpayable",
      "type": "function"
    },
    {
      "inputs": [
        {
          "internalType": "string",
          "name": "_imgHash",
          "type": "string"
        },
        {
          "internalType": "string",
          "name": "_description",
          "type": "string"
        }
      ],
      "name": "uploadImage",
      "outputs": [
        {
          "internalType": "uint256",
          "name": "",
          "type": "uint256"
        }
      ],
      "stateMutability": "nonpayable",
      "type": "function"
    }
  ],
  "bytecode": "0x60806040523480156200001157600080fd5b506040518060400160405280600981526020017f617374726f6e61757400000000000000000000000000000000000000000000008152506040518060400160405280600481526020017f5354415200000000000000000000000000000000000000000000000000000000815250816000908051906020019062000096929190620000c0565b508060019080519060200190620000af929190620000c0565b5050506000600781905550620001d5565b828054620000ce9062000170565b90600052602060002090601f016020900481019282620000f257600085556200013e565b82601f106200010d57805160ff19168380011785556200013e565b828001600101855582156200013e579182015b828111156200013d57825182559160200191906001019062000120565b5b5090506200014d919062000151565b5090565b5b808211156200016c57600081600090555060010162000152565b5090565b600060028204905060018216806200018957607f821691505b60208210811415620001a0576200019f620001a6565b5b50919050565b7f4e487b7100000000000000000000000000000000000000000000000000000000600052602260045260246000fd5b612c0d80620001e56000396000f3fe608060405234801561001057600080fd5b50600436106100f55760003560e01c806370a0823111610097578063b88d4fde11610066578063b88d4fde14610296578063c87b56dd146102b2578063d082e381146102e2578063e985e9c514610300576100f5565b806370a08231146101fc57806395d89b411461022c578063a22cb4651461024a578063a91b831414610266576100f5565b8063095ea7b3116100d3578063095ea7b31461017857806323b872dd1461019457806342842e0e146101b05780636352211e146101cc576100f5565b806301ffc9a7146100fa57806306fdde031461012a578063081812fc14610148575b600080fd5b610114600480360381019061010f9190611c4e565b610330565b60405161012191906120c0565b60405180910390f35b610132610412565b60405161013f91906120db565b60405180910390f35b610162600480360381019061015d9190611d0c565b6104a4565b60405161016f9190612059565b60405180910390f35b610192600480360381019061018d9190611c12565b610529565b005b6101ae60048036038101906101a99190611b0c565b610641565b005b6101ca60048036038101906101c59190611b0c565b6106a1565b005b6101e660048036038101906101e19190611d0c565b6106c1565b6040516101f39190612059565b60405180910390f35b61021660048036038101906102119190611aa7565b610773565b60405161022391906122fd565b60405180910390f35b61023461082b565b60405161024191906120db565b60405180910390f35b610264600480360381019061025f9190611bd6565b6108bd565b005b610280600480360381019061027b9190611ca0565b6108d3565b60405161028d91906122fd565b60405180910390f35b6102b060048036038101906102ab9190611b5b565b61090e565b005b6102cc60048036038101906102c79190611d0c565b610970565b6040516102d991906120db565b60405180910390f35b6102ea610ac2565b6040516102f791906122fd565b60405180910390f35b61031a60048036038101906103159190611ad0565b610ac8565b60405161032791906120c0565b60405180910390f35b60007f80ac58cd000000000000000000000000000000000000000000000000000000007bffffffffffffffffffffffffffffffffffffffffffffffffffffffff1916827bffffffffffffffffffffffffffffffffffffffffffffffffffffffff191614806103fb57507f5b5e139f000000000000000000000000000000000000000000000000000000007bffffffffffffffffffffffffffffffffffffffffffffffffffffffff1916827bffffffffffffffffffffffffffffffffffffffffffffffffffffffff1916145b8061040b575061040a82610b5c565b5b9050919050565b60606000805461042190612553565b80601f016020809104026020016040519081016040528092919081815260200182805461044d90612553565b801561049a5780601f1061046f5761010080835404028352916020019161049a565b820191906000526020600020905b81548152906001019060200180831161047d57829003601f168201915b5050505050905090565b60006104af82610bc6565b6104ee576040517f08c379a00000000000000000000000000000000000000000000000000000000081526004016104e59061225d565b60405180910390fd5b6004600083815260200190815260200160002060009054906101000a900473ffffffffffffffffffffffffffffffffffffffff169050919050565b6000610534826106c1565b90508073ffffffffffffffffffffffffffffffffffffffff168373ffffffffffffffffffffffffffffffffffffffff1614156105a5576040517f08c379a000000000000000000000000000000000000000000000000000000000815260040161059c906122bd565b60405180910390fd5b8073ffffffffffffffffffffffffffffffffffffffff166105c4610c32565b73ffffffffffffffffffffffffffffffffffffffff1614806105f357506105f2816105ed610c32565b610ac8565b5b610632576040517f08c379a00000000000000000000000000000000000000000000000000000000081526004016106299061219d565b60405180910390fd5b61063c8383610c3a565b505050565b61065261064c610c32565b82610cf3565b610691576040517f08c379a0000000000000000000000000000000000000000000000000000000008152600401610688906122dd565b60405180910390fd5b61069c838383610dd1565b505050565b6106bc8383836040518060200160405280600081525061090e565b505050565b6000806002600084815260200190815260200160002060009054906101000a900473ffffffffffffffffffffffffffffffffffffffff169050600073ffffffffffffffffffffffffffffffffffffffff168173ffffffffffffffffffffffffffffffffffffffff16141561076a576040517f08c379a0000000000000000000000000000000000000000000000000000000008152600401610761906121dd565b60405180910390fd5b80915050919050565b60008073ffffffffffffffffffffffffffffffffffffffff168273ffffffffffffffffffffffffffffffffffffffff1614156107e4576040517f08c379a00000000000000000000000000000000000000000000000000000000081526004016107db906121bd565b60405180910390fd5b600360008373ffffffffffffffffffffffffffffffffffffffff1673ffffffffffffffffffffffffffffffffffffffff168152602001908152602001600020549050919050565b60606001805461083a90612553565b80601f016020809104026020016040519081016040528092919081815260200182805461086690612553565b80156108b35780601f10610888576101008083540402835291602001916108b3565b820191906000526020600020905b81548152906001019060200180831161089657829003601f168201915b5050505050905090565b6108cf6108c8610c32565b838361102d565b5050565b60008060075490506108e5338261119a565b6108ef81856111b8565b60016007546108fe91906123e2565b6007819055508091505092915050565b61091f610919610c32565b83610cf3565b61095e576040517f08c379a0000000000000000000000000000000000000000000000000000000008152600401610955906122dd565b60405180910390fd5b61096a8484848461122c565b50505050565b606061097b82610bc6565b6109ba576040517f08c379a00000000000000000000000000000000000000000000000000000000081526004016109b19061223d565b60405180910390fd5b60006006600084815260200190815260200160002080546109da90612553565b80601f0160208091040260200160405190810160405280929190818152602001828054610a0690612553565b8015610a535780601f10610a2857610100808354040283529160200191610a53565b820191906000526020600020905b815481529060010190602001808311610a3657829003601f168201915b505050505090506000610a64611288565b9050600081511415610a7a578192505050610abd565b600082511115610aaf578082604051602001610a97929190612035565b60405160208183030381529060405292505050610abd565b610ab88461129f565b925050505b919050565b60075481565b6000600560008473ffffffffffffffffffffffffffffffffffffffff1673ffffffffffffffffffffffffffffffffffffffff16815260200190815260200160002060008373ffffffffffffffffffffffffffffffffffffffff1673ffffffffffffffffffffffffffffffffffffffff16815260200190815260200160002060009054906101000a900460ff16905092915050565b60007f01ffc9a7000000000000000000000000000000000000000000000000000000007bffffffffffffffffffffffffffffffffffffffffffffffffffffffff1916827bffffffffffffffffffffffffffffffffffffffffffffffffffffffff1916149050919050565b60008073ffffffffffffffffffffffffffffffffffffffff166002600084815260200190815260200160002060009054906101000a900473ffffffffffffffffffffffffffffffffffffffff1673ffffffffffffffffffffffffffffffffffffffff1614159050919050565b600033905090565b816004600083815260200190815260200160002060006101000a81548173ffffffffffffffffffffffffffffffffffffffff021916908373ffffffffffffffffffffffffffffffffffffffff160217905550808273ffffffffffffffffffffffffffffffffffffffff16610cad836106c1565b73ffffffffffffffffffffffffffffffffffffffff167f8c5be1e5ebec7d5bd14f71427d1e84f3dd0314c0f7b2291e5b200ac8c7c3b92560405160405180910390a45050565b6000610cfe82610bc6565b610d3d576040517f08c379a0000000000000000000000000000000000000000000000000000000008152600401610d349061217d565b60405180910390fd5b6000610d48836106c1565b90508073ffffffffffffffffffffffffffffffffffffffff168473ffffffffffffffffffffffffffffffffffffffff161480610db757508373ffffffffffffffffffffffffffffffffffffffff16610d9f846104a4565b73ffffffffffffffffffffffffffffffffffffffff16145b80610dc85750610dc78185610ac8565b5b91505092915050565b8273ffffffffffffffffffffffffffffffffffffffff16610df1826106c1565b73ffffffffffffffffffffffffffffffffffffffff1614610e47576040517f08c379a0000000000000000000000000000000000000000000000000000000008152600401610e3e9061227d565b60405180910390fd5b600073ffffffffffffffffffffffffffffffffffffffff168273ffffffffffffffffffffffffffffffffffffffff161415610eb7576040517f08c379a0000000000000000000000000000000000000000000000000000000008152600401610eae9061213d565b60405180910390fd5b610ec2838383611346565b610ecd600082610c3a565b6001600360008573ffffffffffffffffffffffffffffffffffffffff1673ffffffffffffffffffffffffffffffffffffffff1681526020019081526020016000206000828254610f1d9190612469565b925050819055506001600360008473ffffffffffffffffffffffffffffffffffffffff1673ffffffffffffffffffffffffffffffffffffffff1681526020019081526020016000206000828254610f7491906123e2565b92505081905550816002600083815260200190815260200160002060006101000a81548173ffffffffffffffffffffffffffffffffffffffff021916908373ffffffffffffffffffffffffffffffffffffffff160217905550808273ffffffffffffffffffffffffffffffffffffffff168473ffffffffffffffffffffffffffffffffffffffff167fddf252ad1be2c89b69c2b068fc378daa952ba7f163c4a11628f55a4df523b3ef60405160405180910390a4505050565b8173ffffffffffffffffffffffffffffffffffffffff168373ffffffffffffffffffffffffffffffffffffffff16141561109c576040517f08c379a00000000000000000000000000000000000000000000000000000000081526004016110939061215d565b60405180910390fd5b80600560008573ffffffffffffffffffffffffffffffffffffffff1673ffffffffffffffffffffffffffffffffffffffff16815260200190815260200160002060008473ffffffffffffffffffffffffffffffffffffffff1673ffffffffffffffffffffffffffffffffffffffff16815260200190815260200160002060006101000a81548160ff0219169083151502179055508173ffffffffffffffffffffffffffffffffffffffff168373ffffffffffffffffffffffffffffffffffffffff167f17307eab39ab6107e8899845ad3d59bd9653f200f220920489ca2b5937696c318360405161118d91906120c0565b60405180910390a3505050565b6111b482826040518060200160405280600081525061134b565b5050565b6111c182610bc6565b611200576040517f08c379a00000000000000000000000000000000000000000000000000000000081526004016111f7906121fd565b60405180910390fd5b806006600084815260200190815260200160002090805190602001906112279291906118cb565b505050565b611237848484610dd1565b611243848484846113a6565b611282576040517f08c379a0000000000000000000000000000000000000000000000000000000008152600401611279906120fd565b60405180910390fd5b50505050565b606060405180602001604052806000815250905090565b60606112aa82610bc6565b6112e9576040517f08c379a00000000000000000000000000000000000000000000000000000000081526004016112e09061229d565b60405180910390fd5b60006112f3611288565b90506000815111611313576040518060200160405280600081525061133e565b8061131d8461153d565b60405160200161132e929190612035565b6040516020818303038152906040525b915050919050565b505050565b61135583836116ea565b61136260008484846113a6565b6113a1576040517f08c379a0000000000000000000000000000000000000000000000000000000008152600401611398906120fd565b60405180910390fd5b505050565b60006113c78473ffffffffffffffffffffffffffffffffffffffff166118b8565b15611530578373ffffffffffffffffffffffffffffffffffffffff1663150b7a026113f0610c32565b8786866040518563ffffffff1660e01b81526004016114129493929190612074565b602060405180830381600087803b15801561142c57600080fd5b505af192505050801561145d57506040513d601f19601f8201168201806040525081019061145a9190611c77565b60015b6114e0573d806000811461148d576040519150601f19603f3d011682016040523d82523d6000602084013e611492565b606091505b506000815114156114d8576040517f08c379a00000000000000000000000000000000000000000000000000000000081526004016114cf906120fd565b60405180910390fd5b805181602001fd5b63150b7a0260e01b7bffffffffffffffffffffffffffffffffffffffffffffffffffffffff1916817bffffffffffffffffffffffffffffffffffffffffffffffffffffffff191614915050611535565b600190505b949350505050565b60606000821415611585576040518060400160405280600181526020017f300000000000000000000000000000000000000000000000000000000000000081525090506116e5565b600082905060005b600082146115b75780806115a0906125b6565b915050600a826115b09190612438565b915061158d565b60008167ffffffffffffffff8111156115f9577f4e487b7100000000000000000000000000000000000000000000000000000000600052604160045260246000fd5b6040519080825280601f01601f19166020018201604052801561162b5781602001600182028036833780820191505090505b5090505b600085146116de576001826116449190612469565b9150600a8561165391906125ff565b603061165f91906123e2565b60f81b81838151811061169b577f4e487b7100000000000000000000000000000000000000000000000000000000600052603260045260246000fd5b60200101907effffffffffffffffffffffffffffffffffffffffffffffffffffffffffffff1916908160001a905350600a856116d79190612438565b945061162f565b8093505050505b919050565b600073ffffffffffffffffffffffffffffffffffffffff168273ffffffffffffffffffffffffffffffffffffffff16141561175a576040517f08c379a00000000000000000000000000000000000000000000000000000000081526004016117519061221d565b60405180910390fd5b61176381610bc6565b156117a3576040517f08c379a000000000000000000000000000000000000000000000000000000000815260040161179a9061211d565b60405180910390fd5b6117af60008383611346565b6001600360008473ffffffffffffffffffffffffffffffffffffffff1673ffffffffffffffffffffffffffffffffffffffff16815260200190815260200160002060008282546117ff91906123e2565b92505081905550816002600083815260200190815260200160002060006101000a81548173ffffffffffffffffffffffffffffffffffffffff021916908373ffffffffffffffffffffffffffffffffffffffff160217905550808273ffffffffffffffffffffffffffffffffffffffff16600073ffffffffffffffffffffffffffffffffffffffff167fddf252ad1be2c89b69c2b068fc378daa952ba7f163c4a11628f55a4df523b3ef60405160405180910390a45050565b600080823b905060008111915050919050565b8280546118d790612553565b90600052602060002090601f0160209004810192826118f95760008555611940565b82601f1061191257805160ff1916838001178555611940565b82800160010185558215611940579182015b8281111561193f578251825591602001919060010190611924565b5b50905061194d9190611951565b5090565b5b8082111561196a576000816000905550600101611952565b5090565b600061198161197c8461233d565b612318565b90508281526020810184848401111561199957600080fd5b6119a4848285612511565b509392505050565b60006119bf6119ba8461236e565b612318565b9050828152602081018484840111156119d757600080fd5b6119e2848285612511565b509392505050565b6000813590506119f981612b7b565b92915050565b600081359050611a0e81612b92565b92915050565b600081359050611a2381612ba9565b92915050565b600081519050611a3881612ba9565b92915050565b600082601f830112611a4f57600080fd5b8135611a5f84826020860161196e565b91505092915050565b600082601f830112611a7957600080fd5b8135611a898482602086016119ac565b91505092915050565b600081359050611aa181612bc0565b92915050565b600060208284031215611ab957600080fd5b6000611ac7848285016119ea565b91505092915050565b60008060408385031215611ae357600080fd5b6000611af1858286016119ea565b9250506020611b02858286016119ea565b9150509250929050565b600080600060608486031215611b2157600080fd5b6000611b2f868287016119ea565b9350506020611b40868287016119ea565b9250506040611b5186828701611a92565b9150509250925092565b60008060008060808587031215611b7157600080fd5b6000611b7f878288016119ea565b9450506020611b90878288016119ea565b9350506040611ba187828801611a92565b925050606085013567ffffffffffffffff811115611bbe57600080fd5b611bca87828801611a3e565b91505092959194509250565b60008060408385031215611be957600080fd5b6000611bf7858286016119ea565b9250506020611c08858286016119ff565b9150509250929050565b60008060408385031215611c2557600080fd5b6000611c33858286016119ea565b9250506020611c4485828601611a92565b9150509250929050565b600060208284031215611c6057600080fd5b6000611c6e84828501611a14565b91505092915050565b600060208284031215611c8957600080fd5b6000611c9784828501611a29565b91505092915050565b60008060408385031215611cb357600080fd5b600083013567ffffffffffffffff811115611ccd57600080fd5b611cd985828601611a68565b925050602083013567ffffffffffffffff811115611cf657600080fd5b611d0285828601611a68565b9150509250929050565b600060208284031215611d1e57600080fd5b6000611d2c84828501611a92565b91505092915050565b611d3e8161249d565b82525050565b611d4d816124af565b82525050565b6000611d5e8261239f565b611d6881856123b5565b9350611d78818560208601612520565b611d81816126ec565b840191505092915050565b6000611d97826123aa565b611da181856123c6565b9350611db1818560208601612520565b611dba816126ec565b840191505092915050565b6000611dd0826123aa565b611dda81856123d7565b9350611dea818560208601612520565b80840191505092915050565b6000611e036032836123c6565b9150611e0e826126fd565b604082019050919050565b6000611e26601c836123c6565b9150611e318261274c565b602082019050919050565b6000611e496024836123c6565b9150611e5482612775565b604082019050919050565b6000611e6c6019836123c6565b9150611e77826127c4565b602082019050919050565b6000611e8f602c836123c6565b9150611e9a826127ed565b604082019050919050565b6000611eb26038836123c6565b9150611ebd8261283c565b604082019050919050565b6000611ed5602a836123c6565b9150611ee08261288b565b604082019050919050565b6000611ef86029836123c6565b9150611f03826128da565b604082019050919050565b6000611f1b602e836123c6565b9150611f2682612929565b604082019050919050565b6000611f3e6020836123c6565b9150611f4982612978565b602082019050919050565b6000611f616031836123c6565b9150611f6c826129a1565b604082019050919050565b6000611f84602c836123c6565b9150611f8f826129f0565b604082019050919050565b6000611fa76029836123c6565b9150611fb282612a3f565b604082019050919050565b6000611fca602f836123c6565b9150611fd582612a8e565b604082019050919050565b6000611fed6021836123c6565b9150611ff882612add565b604082019050919050565b60006120106031836123c6565b915061201b82612b2c565b604082019050919050565b61202f81612507565b82525050565b60006120418285611dc5565b915061204d8284611dc5565b91508190509392505050565b600060208201905061206e6000830184611d35565b92915050565b60006080820190506120896000830187611d35565b6120966020830186611d35565b6120a36040830185612026565b81810360608301526120b58184611d53565b905095945050505050565b60006020820190506120d56000830184611d44565b92915050565b600060208201905081810360008301526120f58184611d8c565b905092915050565b6000602082019050818103600083015261211681611df6565b9050919050565b6000602082019050818103600083015261213681611e19565b9050919050565b6000602082019050818103600083015261215681611e3c565b9050919050565b6000602082019050818103600083015261217681611e5f565b9050919050565b6000602082019050818103600083015261219681611e82565b9050919050565b600060208201905081810360008301526121b681611ea5565b9050919050565b600060208201905081810360008301526121d681611ec8565b9050919050565b600060208201905081810360008301526121f681611eeb565b9050919050565b6000602082019050818103600083015261221681611f0e565b9050919050565b6000602082019050818103600083015261223681611f31565b9050919050565b6000602082019050818103600083015261225681611f54565b9050919050565b6000602082019050818103600083015261227681611f77565b9050919050565b6000602082019050818103600083015261229681611f9a565b9050919050565b600060208201905081810360008301526122b681611fbd565b9050919050565b600060208201905081810360008301526122d681611fe0565b9050919050565b600060208201905081810360008301526122f681612003565b9050919050565b60006020820190506123126000830184612026565b92915050565b6000612322612333565b905061232e8282612585565b919050565b6000604051905090565b600067ffffffffffffffff821115612358576123576126bd565b5b612361826126ec565b9050602081019050919050565b600067ffffffffffffffff821115612389576123886126bd565b5b612392826126ec565b9050602081019050919050565b600081519050919050565b600081519050919050565b600082825260208201905092915050565b600082825260208201905092915050565b600081905092915050565b60006123ed82612507565b91506123f883612507565b9250827fffffffffffffffffffffffffffffffffffffffffffffffffffffffffffffffff0382111561242d5761242c612630565b5b828201905092915050565b600061244382612507565b915061244e83612507565b92508261245e5761245d61265f565b5b828204905092915050565b600061247482612507565b915061247f83612507565b92508282101561249257612491612630565b5b828203905092915050565b60006124a8826124e7565b9050919050565b60008115159050919050565b60007fffffffff0000000000000000000000000000000000000000000000000000000082169050919050565b600073ffffffffffffffffffffffffffffffffffffffff82169050919050565b6000819050919050565b82818337600083830152505050565b60005b8381101561253e578082015181840152602081019050612523565b8381111561254d576000848401525b50505050565b6000600282049050600182168061256b57607f821691505b6020821081141561257f5761257e61268e565b5b50919050565b61258e826126ec565b810181811067ffffffffffffffff821117156125ad576125ac6126bd565b5b80604052505050565b60006125c182612507565b91507fffffffffffffffffffffffffffffffffffffffffffffffffffffffffffffffff8214156125f4576125f3612630565b5b600182019050919050565b600061260a82612507565b915061261583612507565b9250826126255761262461265f565b5b828206905092915050565b7f4e487b7100000000000000000000000000000000000000000000000000000000600052601160045260246000fd5b7f4e487b7100000000000000000000000000000000000000000000000000000000600052601260045260246000fd5b7f4e487b7100000000000000000000000000000000000000000000000000000000600052602260045260246000fd5b7f4e487b7100000000000000000000000000000000000000000000000000000000600052604160045260246000fd5b6000601f19601f8301169050919050565b7f4552433732313a207472616e7366657220746f206e6f6e20455243373231526560008201527f63656976657220696d706c656d656e7465720000000000000000000000000000602082015250565b7f4552433732313a20746f6b656e20616c7265616479206d696e74656400000000600082015250565b7f4552433732313a207472616e7366657220746f20746865207a65726f2061646460008201527f7265737300000000000000000000000000000000000000000000000000000000602082015250565b7f4552433732313a20617070726f766520746f2063616c6c657200000000000000600082015250565b7f4552433732313a206f70657261746f7220717565727920666f72206e6f6e657860008201527f697374656e7420746f6b656e0000000000000000000000000000000000000000602082015250565b7f4552433732313a20617070726f76652063616c6c6572206973206e6f74206f7760008201527f6e6572206e6f7220617070726f76656420666f7220616c6c0000000000000000602082015250565b7f4552433732313a2062616c616e636520717565727920666f7220746865207a6560008201527f726f206164647265737300000000000000000000000000000000000000000000602082015250565b7f4552433732313a206f776e657220717565727920666f72206e6f6e657869737460008201527f656e7420746f6b656e0000000000000000000000000000000000000000000000602082015250565b7f45524337323155524953746f726167653a2055524920736574206f66206e6f6e60008201527f6578697374656e7420746f6b656e000000000000000000000000000000000000602082015250565b7f4552433732313a206d696e7420746f20746865207a65726f2061646472657373600082015250565b7f45524337323155524953746f726167653a2055524920717565727920666f722060008201527f6e6f6e6578697374656e7420746f6b656e000000000000000000000000000000602082015250565b7f4552433732313a20617070726f76656420717565727920666f72206e6f6e657860008201527f697374656e7420746f6b656e0000000000000000000000000000000000000000602082015250565b7f4552433732313a207472616e73666572206f6620746f6b656e2074686174206960008201527f73206e6f74206f776e0000000000000000000000000000000000000000000000602082015250565b7f4552433732314d657461646174613a2055524920717565727920666f72206e6f60008201527f6e6578697374656e7420746f6b656e0000000000000000000000000000000000602082015250565b7f4552433732313a20617070726f76616c20746f2063757272656e74206f776e6560008201527f7200000000000000000000000000000000000000000000000000000000000000602082015250565b7f4552433732313a207472616e736665722063616c6c6572206973206e6f74206f60008201527f776e6572206e6f7220617070726f766564000000000000000000000000000000602082015250565b612b848161249d565b8114612b8f57600080fd5b50565b612b9b816124af565b8114612ba657600080fd5b50565b612bb2816124bb565b8114612bbd57600080fd5b50565b612bc981612507565b8114612bd457600080fd5b5056fea26469706673582212206a372e68243f11b6d0362521193f803fc4bbcab9ca7d5f7e50ee1375d3301bf764736f6c63430008010033",
  "immutableReferences": {},
  "source": "pragma solidity >0.5.0;\n\nimport \"@openzeppelin/contracts/token/ERC721/extensions/ERC721URIStorage.sol\";\n// import \"@openzeppelin/contracts/utils/Counters.sol\";\n\n\n//this contract inherits ERC721\ncontract NFTify is ERC721URIStorage {\n    uint256 public tokenCounter;\n\n    //constructor for an ERC721 is a name and symbol\n    constructor() public ERC721(\"astronaut\", \"STAR\") {\n        tokenCounter = 0;\n    }\n\n    //a token url is a ipfs url\n    //after we mint the token we are going to return the id of the token\n    function uploadImage(string memory _imgHash, string memory _description)\n        public\n        returns (uint256)\n    {\n        //get number from token counter\n        uint256 newNFTTokenId = tokenCounter;\n\n        //safely mint token for the person that called the function\n        _safeMint(msg.sender, newNFTTokenId);\n\n        //set the token uri of the token id of the uri passed\n        _setTokenURI(newNFTTokenId, _imgHash);\n\n        //increment the counter\n        tokenCounter = tokenCounter + 1;\n\n        //return the token id\n        return newNFTTokenId;\n    }\n}\n",
  "sourcePath": "/Users/grozensmith/developer/nft-ify/src/contracts/nftify.sol",
  "compiler": {
    "name": "solc",
    "version": "0.8.1+commit.df193b15.Emscripten.clang"
  },
  "schemaVersion": "3.4.3",
  "updatedAt": "2021-12-05T03:55:25.076Z",
  "networkType": "ethereum",
  "devdoc": {
    "kind": "dev",
    "methods": {
      "approve(address,uint256)": {
        "details": "See {IERC721-approve}."
      },
      "balanceOf(address)": {
        "details": "See {IERC721-balanceOf}."
      },
      "getApproved(uint256)": {
        "details": "See {IERC721-getApproved}."
      },
      "isApprovedForAll(address,address)": {
        "details": "See {IERC721-isApprovedForAll}."
      },
      "name()": {
        "details": "See {IERC721Metadata-name}."
      },
      "ownerOf(uint256)": {
        "details": "See {IERC721-ownerOf}."
      },
      "safeTransferFrom(address,address,uint256)": {
        "details": "See {IERC721-safeTransferFrom}."
      },
      "safeTransferFrom(address,address,uint256,bytes)": {
        "details": "See {IERC721-safeTransferFrom}."
      },
      "setApprovalForAll(address,bool)": {
        "details": "See {IERC721-setApprovalForAll}."
      },
      "supportsInterface(bytes4)": {
        "details": "See {IERC165-supportsInterface}."
      },
      "symbol()": {
        "details": "See {IERC721Metadata-symbol}."
      },
      "tokenURI(uint256)": {
        "details": "See {IERC721Metadata-tokenURI}."
      },
      "transferFrom(address,address,uint256)": {
        "details": "See {IERC721-transferFrom}."
      }
    },
    "version": 1
  },
  "userdoc": {
    "kind": "user",
    "methods": {},
    "version": 1
  }
}