{
  "contractName": "NFTify",
  "abi": [
    {
      "inputs": [],
      "stateMutability": "nonpayable",
      "type": "constructor"
    },
    {
      "anonymous": false,
      "inputs": [
        {
          "indexed": true,
          "internalType": "address",
          "name": "owner",
          "type": "address"
        },
        {
          "indexed": true,
          "internalType": "address",
          "name": "approved",
          "type": "address"
        },
        {
          "indexed": true,
          "internalType": "uint256",
          "name": "tokenId",
          "type": "uint256"
        }
      ],
      "name": "Approval",
      "type": "event"
    },
    {
      "anonymous": false,
      "inputs": [
        {
          "indexed": true,
          "internalType": "address",
          "name": "owner",
          "type": "address"
        },
        {
          "indexed": true,
          "internalType": "address",
          "name": "operator",
          "type": "address"
        },
        {
          "indexed": false,
          "internalType": "bool",
          "name": "approved",
          "type": "bool"
        }
      ],
      "name": "ApprovalForAll",
      "type": "event"
    },
    {
      "anonymous": false,
      "inputs": [
        {
          "indexed": false,
          "internalType": "uint256",
          "name": "id",
          "type": "uint256"
        },
        {
          "indexed": false,
          "internalType": "string",
          "name": "hash",
          "type": "string"
        },
        {
          "indexed": false,
          "internalType": "string",
          "name": "description",
          "type": "string"
        }
      ],
      "name": "NFTCreated",
      "type": "event"
    },
    {
      "anonymous": false,
      "inputs": [
        {
          "indexed": true,
          "internalType": "address",
          "name": "from",
          "type": "address"
        },
        {
          "indexed": true,
          "internalType": "address",
          "name": "to",
          "type": "address"
        },
        {
          "indexed": true,
          "internalType": "uint256",
          "name": "tokenId",
          "type": "uint256"
        }
      ],
      "name": "Transfer",
      "type": "event"
    },
    {
      "inputs": [
        {
          "internalType": "address",
          "name": "to",
          "type": "address"
        },
        {
          "internalType": "uint256",
          "name": "tokenId",
          "type": "uint256"
        }
      ],
      "name": "approve",
      "outputs": [],
      "stateMutability": "nonpayable",
      "type": "function"
    },
    {
      "inputs": [
        {
          "internalType": "address",
          "name": "owner",
          "type": "address"
        }
      ],
      "name": "balanceOf",
      "outputs": [
        {
          "internalType": "uint256",
          "name": "",
          "type": "uint256"
        }
      ],
      "stateMutability": "view",
      "type": "function",
      "constant": true
    },
    {
      "inputs": [
        {
          "internalType": "uint256",
          "name": "tokenId",
          "type": "uint256"
        }
      ],
      "name": "getApproved",
      "outputs": [
        {
          "internalType": "address",
          "name": "",
          "type": "address"
        }
      ],
      "stateMutability": "view",
      "type": "function",
      "constant": true
    },
    {
      "inputs": [
        {
          "internalType": "address",
          "name": "owner",
          "type": "address"
        },
        {
          "internalType": "address",
          "name": "operator",
          "type": "address"
        }
      ],
      "name": "isApprovedForAll",
      "outputs": [
        {
          "internalType": "bool",
          "name": "",
          "type": "bool"
        }
      ],
      "stateMutability": "view",
      "type": "function",
      "constant": true
    },
    {
      "inputs": [],
      "name": "name",
      "outputs": [
        {
          "internalType": "string",
          "name": "",
          "type": "string"
        }
      ],
      "stateMutability": "view",
      "type": "function",
      "constant": true
    },
    {
      "inputs": [
        {
          "internalType": "uint256",
          "name": "tokenId",
          "type": "uint256"
        }
      ],
      "name": "ownerOf",
      "outputs": [
        {
          "internalType": "address",
          "name": "",
          "type": "address"
        }
      ],
      "stateMutability": "view",
      "type": "function",
      "constant": true
    },
    {
      "inputs": [
        {
          "internalType": "address",
          "name": "from",
          "type": "address"
        },
        {
          "internalType": "address",
          "name": "to",
          "type": "address"
        },
        {
          "internalType": "uint256",
          "name": "tokenId",
          "type": "uint256"
        }
      ],
      "name": "safeTransferFrom",
      "outputs": [],
      "stateMutability": "nonpayable",
      "type": "function"
    },
    {
      "inputs": [
        {
          "internalType": "address",
          "name": "from",
          "type": "address"
        },
        {
          "internalType": "address",
          "name": "to",
          "type": "address"
        },
        {
          "internalType": "uint256",
          "name": "tokenId",
          "type": "uint256"
        },
        {
          "internalType": "bytes",
          "name": "_data",
          "type": "bytes"
        }
      ],
      "name": "safeTransferFrom",
      "outputs": [],
      "stateMutability": "nonpayable",
      "type": "function"
    },
    {
      "inputs": [
        {
          "internalType": "address",
          "name": "operator",
          "type": "address"
        },
        {
          "internalType": "bool",
          "name": "approved",
          "type": "bool"
        }
      ],
      "name": "setApprovalForAll",
      "outputs": [],
      "stateMutability": "nonpayable",
      "type": "function"
    },
    {
      "inputs": [
        {
          "internalType": "bytes4",
          "name": "interfaceId",
          "type": "bytes4"
        }
      ],
      "name": "supportsInterface",
      "outputs": [
        {
          "internalType": "bool",
          "name": "",
          "type": "bool"
        }
      ],
      "stateMutability": "view",
      "type": "function",
      "constant": true
    },
    {
      "inputs": [],
      "name": "symbol",
      "outputs": [
        {
          "internalType": "string",
          "name": "",
          "type": "string"
        }
      ],
      "stateMutability": "view",
      "type": "function",
      "constant": true
    },
    {
      "inputs": [],
      "name": "tokenCounter",
      "outputs": [
        {
          "internalType": "uint256",
          "name": "",
          "type": "uint256"
        }
      ],
      "stateMutability": "view",
      "type": "function",
      "constant": true
    },
    {
      "inputs": [
        {
          "internalType": "uint256",
          "name": "tokenId",
          "type": "uint256"
        }
      ],
      "name": "tokenURI",
      "outputs": [
        {
          "internalType": "string",
          "name": "",
          "type": "string"
        }
      ],
      "stateMutability": "view",
      "type": "function",
      "constant": true
    },
    {
      "inputs": [
        {
          "internalType": "address",
          "name": "from",
          "type": "address"
        },
        {
          "internalType": "address",
          "name": "to",
          "type": "address"
        },
        {
          "internalType": "uint256",
          "name": "tokenId",
          "type": "uint256"
        }
      ],
      "name": "transferFrom",
      "outputs": [],
      "stateMutability": "nonpayable",
      "type": "function"
    },
    {
      "inputs": [
        {
          "internalType": "string",
          "name": "_imgHash",
          "type": "string"
        },
        {
          "internalType": "string",
          "name": "_description",
          "type": "string"
        }
      ],
      "name": "uploadImage",
      "outputs": [
        {
          "internalType": "address",
          "name": "",
          "type": "address"
        }
      ],
      "stateMutability": "nonpayable",
      "type": "function"
    }
  ],
  "bytecode": "0x60806040523480156200001157600080fd5b506040518060400160405280600981526020017f617374726f6e61757400000000000000000000000000000000000000000000008152506040518060400160405280600481526020017f5354415200000000000000000000000000000000000000000000000000000000815250816000908051906020019062000096929190620000c0565b508060019080519060200190620000af929190620000c0565b5050506000600781905550620001d5565b828054620000ce9062000170565b90600052602060002090601f016020900481019282620000f257600085556200013e565b82601f106200010d57805160ff19168380011785556200013e565b828001600101855582156200013e579182015b828111156200013d57825182559160200191906001019062000120565b5b5090506200014d919062000151565b5090565b5b808211156200016c57600081600090555060010162000152565b5090565b600060028204905060018216806200018957607f821691505b60208210811415620001a0576200019f620001a6565b5b50919050565b7f4e487b7100000000000000000000000000000000000000000000000000000000600052602260045260246000fd5b612ca780620001e56000396000f3fe608060405234801561001057600080fd5b50600436106100f55760003560e01c806370a0823111610097578063b88d4fde11610066578063b88d4fde14610296578063c87b56dd146102b2578063d082e381146102e2578063e985e9c514610300576100f5565b806370a08231146101fc57806395d89b411461022c578063a22cb4651461024a578063a91b831414610266576100f5565b8063095ea7b3116100d3578063095ea7b31461017857806323b872dd1461019457806342842e0e146101b05780636352211e146101cc576100f5565b806301ffc9a7146100fa57806306fdde031461012a578063081812fc14610148575b600080fd5b610114600480360381019061010f9190611ca3565b610330565b6040516101219190612115565b60405180910390f35b610132610412565b60405161013f9190612130565b60405180910390f35b610162600480360381019061015d9190611d61565b6104a4565b60405161016f91906120ae565b60405180910390f35b610192600480360381019061018d9190611c67565b610529565b005b6101ae60048036038101906101a99190611b61565b610641565b005b6101ca60048036038101906101c59190611b61565b6106a1565b005b6101e660048036038101906101e19190611d61565b6106c1565b6040516101f391906120ae565b60405180910390f35b61021660048036038101906102119190611afc565b610773565b6040516102239190612352565b60405180910390f35b61023461082b565b6040516102419190612130565b60405180910390f35b610264600480360381019061025f9190611c2b565b6108bd565b005b610280600480360381019061027b9190611cf5565b6108d3565b60405161028d91906120ae565b60405180910390f35b6102b060048036038101906102ab9190611bb0565b610963565b005b6102cc60048036038101906102c79190611d61565b6109c5565b6040516102d99190612130565b60405180910390f35b6102ea610b17565b6040516102f79190612352565b60405180910390f35b61031a60048036038101906103159190611b25565b610b1d565b6040516103279190612115565b60405180910390f35b60007f80ac58cd000000000000000000000000000000000000000000000000000000007bffffffffffffffffffffffffffffffffffffffffffffffffffffffff1916827bffffffffffffffffffffffffffffffffffffffffffffffffffffffff191614806103fb57507f5b5e139f000000000000000000000000000000000000000000000000000000007bffffffffffffffffffffffffffffffffffffffffffffffffffffffff1916827bffffffffffffffffffffffffffffffffffffffffffffffffffffffff1916145b8061040b575061040a82610bb1565b5b9050919050565b606060008054610421906125ed565b80601f016020809104026020016040519081016040528092919081815260200182805461044d906125ed565b801561049a5780601f1061046f5761010080835404028352916020019161049a565b820191906000526020600020905b81548152906001019060200180831161047d57829003601f168201915b5050505050905090565b60006104af82610c1b565b6104ee576040517f08c379a00000000000000000000000000000000000000000000000000000000081526004016104e5906122b2565b60405180910390fd5b6004600083815260200190815260200160002060009054906101000a900473ffffffffffffffffffffffffffffffffffffffff169050919050565b6000610534826106c1565b90508073ffffffffffffffffffffffffffffffffffffffff168373ffffffffffffffffffffffffffffffffffffffff1614156105a5576040517f08c379a000000000000000000000000000000000000000000000000000000000815260040161059c90612312565b60405180910390fd5b8073ffffffffffffffffffffffffffffffffffffffff166105c4610c87565b73ffffffffffffffffffffffffffffffffffffffff1614806105f357506105f2816105ed610c87565b610b1d565b5b610632576040517f08c379a0000000000000000000000000000000000000000000000000000000008152600401610629906121f2565b60405180910390fd5b61063c8383610c8f565b505050565b61065261064c610c87565b82610d48565b610691576040517f08c379a000000000000000000000000000000000000000000000000000000000815260040161068890612332565b60405180910390fd5b61069c838383610e26565b505050565b6106bc83838360405180602001604052806000815250610963565b505050565b6000806002600084815260200190815260200160002060009054906101000a900473ffffffffffffffffffffffffffffffffffffffff169050600073ffffffffffffffffffffffffffffffffffffffff168173ffffffffffffffffffffffffffffffffffffffff16141561076a576040517f08c379a000000000000000000000000000000000000000000000000000000000815260040161076190612232565b60405180910390fd5b80915050919050565b60008073ffffffffffffffffffffffffffffffffffffffff168273ffffffffffffffffffffffffffffffffffffffff1614156107e4576040517f08c379a00000000000000000000000000000000000000000000000000000000081526004016107db90612212565b60405180910390fd5b600360008373ffffffffffffffffffffffffffffffffffffffff1673ffffffffffffffffffffffffffffffffffffffff168152602001908152602001600020549050919050565b60606001805461083a906125ed565b80601f0160208091040260200160405190810160405280929190818152602001828054610866906125ed565b80156108b35780601f10610888576101008083540402835291602001916108b3565b820191906000526020600020905b81548152906001019060200180831161089657829003601f168201915b5050505050905090565b6108cf6108c8610c87565b8383611082565b5050565b60008060075490506108e533826111ef565b6108ee81610c1b565b6108f757600080fd5b610901818561120d565b6001600754610910919061247c565b6007819055507f0508f820196a2b92c4bbd740d48c93c17741bfb305d1c06cd8f2d63803dc96268185856040516109499392919061236d565b60405180910390a161095a816106c1565b91505092915050565b61097461096e610c87565b83610d48565b6109b3576040517f08c379a00000000000000000000000000000000000000000000000000000000081526004016109aa90612332565b60405180910390fd5b6109bf84848484611281565b50505050565b60606109d082610c1b565b610a0f576040517f08c379a0000000000000000000000000000000000000000000000000000000008152600401610a0690612292565b60405180910390fd5b6000600660008481526020019081526020016000208054610a2f906125ed565b80601f0160208091040260200160405190810160405280929190818152602001828054610a5b906125ed565b8015610aa85780601f10610a7d57610100808354040283529160200191610aa8565b820191906000526020600020905b815481529060010190602001808311610a8b57829003601f168201915b505050505090506000610ab96112dd565b9050600081511415610acf578192505050610b12565b600082511115610b04578082604051602001610aec92919061208a565b60405160208183030381529060405292505050610b12565b610b0d846112f4565b925050505b919050565b60075481565b6000600560008473ffffffffffffffffffffffffffffffffffffffff1673ffffffffffffffffffffffffffffffffffffffff16815260200190815260200160002060008373ffffffffffffffffffffffffffffffffffffffff1673ffffffffffffffffffffffffffffffffffffffff16815260200190815260200160002060009054906101000a900460ff16905092915050565b60007f01ffc9a7000000000000000000000000000000000000000000000000000000007bffffffffffffffffffffffffffffffffffffffffffffffffffffffff1916827bffffffffffffffffffffffffffffffffffffffffffffffffffffffff1916149050919050565b60008073ffffffffffffffffffffffffffffffffffffffff166002600084815260200190815260200160002060009054906101000a900473ffffffffffffffffffffffffffffffffffffffff1673ffffffffffffffffffffffffffffffffffffffff1614159050919050565b600033905090565b816004600083815260200190815260200160002060006101000a81548173ffffffffffffffffffffffffffffffffffffffff021916908373ffffffffffffffffffffffffffffffffffffffff160217905550808273ffffffffffffffffffffffffffffffffffffffff16610d02836106c1565b73ffffffffffffffffffffffffffffffffffffffff167f8c5be1e5ebec7d5bd14f71427d1e84f3dd0314c0f7b2291e5b200ac8c7c3b92560405160405180910390a45050565b6000610d5382610c1b565b610d92576040517f08c379a0000000000000000000000000000000000000000000000000000000008152600401610d89906121d2565b60405180910390fd5b6000610d9d836106c1565b90508073ffffffffffffffffffffffffffffffffffffffff168473ffffffffffffffffffffffffffffffffffffffff161480610e0c57508373ffffffffffffffffffffffffffffffffffffffff16610df4846104a4565b73ffffffffffffffffffffffffffffffffffffffff16145b80610e1d5750610e1c8185610b1d565b5b91505092915050565b8273ffffffffffffffffffffffffffffffffffffffff16610e46826106c1565b73ffffffffffffffffffffffffffffffffffffffff1614610e9c576040517f08c379a0000000000000000000000000000000000000000000000000000000008152600401610e93906122d2565b60405180910390fd5b600073ffffffffffffffffffffffffffffffffffffffff168273ffffffffffffffffffffffffffffffffffffffff161415610f0c576040517f08c379a0000000000000000000000000000000000000000000000000000000008152600401610f0390612192565b60405180910390fd5b610f1783838361139b565b610f22600082610c8f565b6001600360008573ffffffffffffffffffffffffffffffffffffffff1673ffffffffffffffffffffffffffffffffffffffff1681526020019081526020016000206000828254610f729190612503565b925050819055506001600360008473ffffffffffffffffffffffffffffffffffffffff1673ffffffffffffffffffffffffffffffffffffffff1681526020019081526020016000206000828254610fc9919061247c565b92505081905550816002600083815260200190815260200160002060006101000a81548173ffffffffffffffffffffffffffffffffffffffff021916908373ffffffffffffffffffffffffffffffffffffffff160217905550808273ffffffffffffffffffffffffffffffffffffffff168473ffffffffffffffffffffffffffffffffffffffff167fddf252ad1be2c89b69c2b068fc378daa952ba7f163c4a11628f55a4df523b3ef60405160405180910390a4505050565b8173ffffffffffffffffffffffffffffffffffffffff168373ffffffffffffffffffffffffffffffffffffffff1614156110f1576040517f08c379a00000000000000000000000000000000000000000000000000000000081526004016110e8906121b2565b60405180910390fd5b80600560008573ffffffffffffffffffffffffffffffffffffffff1673ffffffffffffffffffffffffffffffffffffffff16815260200190815260200160002060008473ffffffffffffffffffffffffffffffffffffffff1673ffffffffffffffffffffffffffffffffffffffff16815260200190815260200160002060006101000a81548160ff0219169083151502179055508173ffffffffffffffffffffffffffffffffffffffff168373ffffffffffffffffffffffffffffffffffffffff167f17307eab39ab6107e8899845ad3d59bd9653f200f220920489ca2b5937696c31836040516111e29190612115565b60405180910390a3505050565b6112098282604051806020016040528060008152506113a0565b5050565b61121682610c1b565b611255576040517f08c379a000000000000000000000000000000000000000000000000000000000815260040161124c90612252565b60405180910390fd5b8060066000848152602001908152602001600020908051906020019061127c929190611920565b505050565b61128c848484610e26565b611298848484846113fb565b6112d7576040517f08c379a00000000000000000000000000000000000000000000000000000000081526004016112ce90612152565b60405180910390fd5b50505050565b606060405180602001604052806000815250905090565b60606112ff82610c1b565b61133e576040517f08c379a0000000000000000000000000000000000000000000000000000000008152600401611335906122f2565b60405180910390fd5b60006113486112dd565b905060008151116113685760405180602001604052806000815250611393565b8061137284611592565b60405160200161138392919061208a565b6040516020818303038152906040525b915050919050565b505050565b6113aa838361173f565b6113b760008484846113fb565b6113f6576040517f08c379a00000000000000000000000000000000000000000000000000000000081526004016113ed90612152565b60405180910390fd5b505050565b600061141c8473ffffffffffffffffffffffffffffffffffffffff1661190d565b15611585578373ffffffffffffffffffffffffffffffffffffffff1663150b7a02611445610c87565b8786866040518563ffffffff1660e01b815260040161146794939291906120c9565b602060405180830381600087803b15801561148157600080fd5b505af19250505080156114b257506040513d601f19601f820116820180604052508101906114af9190611ccc565b60015b611535573d80600081146114e2576040519150601f19603f3d011682016040523d82523d6000602084013e6114e7565b606091505b5060008151141561152d576040517f08c379a000000000000000000000000000000000000000000000000000000000815260040161152490612152565b60405180910390fd5b805181602001fd5b63150b7a0260e01b7bffffffffffffffffffffffffffffffffffffffffffffffffffffffff1916817bffffffffffffffffffffffffffffffffffffffffffffffffffffffff19161491505061158a565b600190505b949350505050565b606060008214156115da576040518060400160405280600181526020017f3000000000000000000000000000000000000000000000000000000000000000815250905061173a565b600082905060005b6000821461160c5780806115f590612650565b915050600a8261160591906124d2565b91506115e2565b60008167ffffffffffffffff81111561164e577f4e487b7100000000000000000000000000000000000000000000000000000000600052604160045260246000fd5b6040519080825280601f01601f1916602001820160405280156116805781602001600182028036833780820191505090505b5090505b60008514611733576001826116999190612503565b9150600a856116a89190612699565b60306116b4919061247c565b60f81b8183815181106116f0577f4e487b7100000000000000000000000000000000000000000000000000000000600052603260045260246000fd5b60200101907effffffffffffffffffffffffffffffffffffffffffffffffffffffffffffff1916908160001a905350600a8561172c91906124d2565b9450611684565b8093505050505b919050565b600073ffffffffffffffffffffffffffffffffffffffff168273ffffffffffffffffffffffffffffffffffffffff1614156117af576040517f08c379a00000000000000000000000000000000000000000000000000000000081526004016117a690612272565b60405180910390fd5b6117b881610c1b565b156117f8576040517f08c379a00000000000000000000000000000000000000000000000000000000081526004016117ef90612172565b60405180910390fd5b6118046000838361139b565b6001600360008473ffffffffffffffffffffffffffffffffffffffff1673ffffffffffffffffffffffffffffffffffffffff1681526020019081526020016000206000828254611854919061247c565b92505081905550816002600083815260200190815260200160002060006101000a81548173ffffffffffffffffffffffffffffffffffffffff021916908373ffffffffffffffffffffffffffffffffffffffff160217905550808273ffffffffffffffffffffffffffffffffffffffff16600073ffffffffffffffffffffffffffffffffffffffff167fddf252ad1be2c89b69c2b068fc378daa952ba7f163c4a11628f55a4df523b3ef60405160405180910390a45050565b600080823b905060008111915050919050565b82805461192c906125ed565b90600052602060002090601f01602090048101928261194e5760008555611995565b82601f1061196757805160ff1916838001178555611995565b82800160010185558215611995579182015b82811115611994578251825591602001919060010190611979565b5b5090506119a291906119a6565b5090565b5b808211156119bf5760008160009055506001016119a7565b5090565b60006119d66119d1846123d7565b6123b2565b9050828152602081018484840111156119ee57600080fd5b6119f98482856125ab565b509392505050565b6000611a14611a0f84612408565b6123b2565b905082815260208101848484011115611a2c57600080fd5b611a378482856125ab565b509392505050565b600081359050611a4e81612c15565b92915050565b600081359050611a6381612c2c565b92915050565b600081359050611a7881612c43565b92915050565b600081519050611a8d81612c43565b92915050565b600082601f830112611aa457600080fd5b8135611ab48482602086016119c3565b91505092915050565b600082601f830112611ace57600080fd5b8135611ade848260208601611a01565b91505092915050565b600081359050611af681612c5a565b92915050565b600060208284031215611b0e57600080fd5b6000611b1c84828501611a3f565b91505092915050565b60008060408385031215611b3857600080fd5b6000611b4685828601611a3f565b9250506020611b5785828601611a3f565b9150509250929050565b600080600060608486031215611b7657600080fd5b6000611b8486828701611a3f565b9350506020611b9586828701611a3f565b9250506040611ba686828701611ae7565b9150509250925092565b60008060008060808587031215611bc657600080fd5b6000611bd487828801611a3f565b9450506020611be587828801611a3f565b9350506040611bf687828801611ae7565b925050606085013567ffffffffffffffff811115611c1357600080fd5b611c1f87828801611a93565b91505092959194509250565b60008060408385031215611c3e57600080fd5b6000611c4c85828601611a3f565b9250506020611c5d85828601611a54565b9150509250929050565b60008060408385031215611c7a57600080fd5b6000611c8885828601611a3f565b9250506020611c9985828601611ae7565b9150509250929050565b600060208284031215611cb557600080fd5b6000611cc384828501611a69565b91505092915050565b600060208284031215611cde57600080fd5b6000611cec84828501611a7e565b91505092915050565b60008060408385031215611d0857600080fd5b600083013567ffffffffffffffff811115611d2257600080fd5b611d2e85828601611abd565b925050602083013567ffffffffffffffff811115611d4b57600080fd5b611d5785828601611abd565b9150509250929050565b600060208284031215611d7357600080fd5b6000611d8184828501611ae7565b91505092915050565b611d9381612537565b82525050565b611da281612549565b82525050565b6000611db382612439565b611dbd818561244f565b9350611dcd8185602086016125ba565b611dd681612786565b840191505092915050565b6000611dec82612444565b611df68185612460565b9350611e068185602086016125ba565b611e0f81612786565b840191505092915050565b6000611e2582612444565b611e2f8185612471565b9350611e3f8185602086016125ba565b80840191505092915050565b6000611e58603283612460565b9150611e6382612797565b604082019050919050565b6000611e7b601c83612460565b9150611e86826127e6565b602082019050919050565b6000611e9e602483612460565b9150611ea98261280f565b604082019050919050565b6000611ec1601983612460565b9150611ecc8261285e565b602082019050919050565b6000611ee4602c83612460565b9150611eef82612887565b604082019050919050565b6000611f07603883612460565b9150611f12826128d6565b604082019050919050565b6000611f2a602a83612460565b9150611f3582612925565b604082019050919050565b6000611f4d602983612460565b9150611f5882612974565b604082019050919050565b6000611f70602e83612460565b9150611f7b826129c3565b604082019050919050565b6000611f93602083612460565b9150611f9e82612a12565b602082019050919050565b6000611fb6603183612460565b9150611fc182612a3b565b604082019050919050565b6000611fd9602c83612460565b9150611fe482612a8a565b604082019050919050565b6000611ffc602983612460565b915061200782612ad9565b604082019050919050565b600061201f602f83612460565b915061202a82612b28565b604082019050919050565b6000612042602183612460565b915061204d82612b77565b604082019050919050565b6000612065603183612460565b915061207082612bc6565b604082019050919050565b612084816125a1565b82525050565b60006120968285611e1a565b91506120a28284611e1a565b91508190509392505050565b60006020820190506120c36000830184611d8a565b92915050565b60006080820190506120de6000830187611d8a565b6120eb6020830186611d8a565b6120f8604083018561207b565b818103606083015261210a8184611da8565b905095945050505050565b600060208201905061212a6000830184611d99565b92915050565b6000602082019050818103600083015261214a8184611de1565b905092915050565b6000602082019050818103600083015261216b81611e4b565b9050919050565b6000602082019050818103600083015261218b81611e6e565b9050919050565b600060208201905081810360008301526121ab81611e91565b9050919050565b600060208201905081810360008301526121cb81611eb4565b9050919050565b600060208201905081810360008301526121eb81611ed7565b9050919050565b6000602082019050818103600083015261220b81611efa565b9050919050565b6000602082019050818103600083015261222b81611f1d565b9050919050565b6000602082019050818103600083015261224b81611f40565b9050919050565b6000602082019050818103600083015261226b81611f63565b9050919050565b6000602082019050818103600083015261228b81611f86565b9050919050565b600060208201905081810360008301526122ab81611fa9565b9050919050565b600060208201905081810360008301526122cb81611fcc565b9050919050565b600060208201905081810360008301526122eb81611fef565b9050919050565b6000602082019050818103600083015261230b81612012565b9050919050565b6000602082019050818103600083015261232b81612035565b9050919050565b6000602082019050818103600083015261234b81612058565b9050919050565b6000602082019050612367600083018461207b565b92915050565b6000606082019050612382600083018661207b565b81810360208301526123948185611de1565b905081810360408301526123a88184611de1565b9050949350505050565b60006123bc6123cd565b90506123c8828261261f565b919050565b6000604051905090565b600067ffffffffffffffff8211156123f2576123f1612757565b5b6123fb82612786565b9050602081019050919050565b600067ffffffffffffffff82111561242357612422612757565b5b61242c82612786565b9050602081019050919050565b600081519050919050565b600081519050919050565b600082825260208201905092915050565b600082825260208201905092915050565b600081905092915050565b6000612487826125a1565b9150612492836125a1565b9250827fffffffffffffffffffffffffffffffffffffffffffffffffffffffffffffffff038211156124c7576124c66126ca565b5b828201905092915050565b60006124dd826125a1565b91506124e8836125a1565b9250826124f8576124f76126f9565b5b828204905092915050565b600061250e826125a1565b9150612519836125a1565b92508282101561252c5761252b6126ca565b5b828203905092915050565b600061254282612581565b9050919050565b60008115159050919050565b60007fffffffff0000000000000000000000000000000000000000000000000000000082169050919050565b600073ffffffffffffffffffffffffffffffffffffffff82169050919050565b6000819050919050565b82818337600083830152505050565b60005b838110156125d85780820151818401526020810190506125bd565b838111156125e7576000848401525b50505050565b6000600282049050600182168061260557607f821691505b6020821081141561261957612618612728565b5b50919050565b61262882612786565b810181811067ffffffffffffffff8211171561264757612646612757565b5b80604052505050565b600061265b826125a1565b91507fffffffffffffffffffffffffffffffffffffffffffffffffffffffffffffffff82141561268e5761268d6126ca565b5b600182019050919050565b60006126a4826125a1565b91506126af836125a1565b9250826126bf576126be6126f9565b5b828206905092915050565b7f4e487b7100000000000000000000000000000000000000000000000000000000600052601160045260246000fd5b7f4e487b7100000000000000000000000000000000000000000000000000000000600052601260045260246000fd5b7f4e487b7100000000000000000000000000000000000000000000000000000000600052602260045260246000fd5b7f4e487b7100000000000000000000000000000000000000000000000000000000600052604160045260246000fd5b6000601f19601f8301169050919050565b7f4552433732313a207472616e7366657220746f206e6f6e20455243373231526560008201527f63656976657220696d706c656d656e7465720000000000000000000000000000602082015250565b7f4552433732313a20746f6b656e20616c7265616479206d696e74656400000000600082015250565b7f4552433732313a207472616e7366657220746f20746865207a65726f2061646460008201527f7265737300000000000000000000000000000000000000000000000000000000602082015250565b7f4552433732313a20617070726f766520746f2063616c6c657200000000000000600082015250565b7f4552433732313a206f70657261746f7220717565727920666f72206e6f6e657860008201527f697374656e7420746f6b656e0000000000000000000000000000000000000000602082015250565b7f4552433732313a20617070726f76652063616c6c6572206973206e6f74206f7760008201527f6e6572206e6f7220617070726f76656420666f7220616c6c0000000000000000602082015250565b7f4552433732313a2062616c616e636520717565727920666f7220746865207a6560008201527f726f206164647265737300000000000000000000000000000000000000000000602082015250565b7f4552433732313a206f776e657220717565727920666f72206e6f6e657869737460008201527f656e7420746f6b656e0000000000000000000000000000000000000000000000602082015250565b7f45524337323155524953746f726167653a2055524920736574206f66206e6f6e60008201527f6578697374656e7420746f6b656e000000000000000000000000000000000000602082015250565b7f4552433732313a206d696e7420746f20746865207a65726f2061646472657373600082015250565b7f45524337323155524953746f726167653a2055524920717565727920666f722060008201527f6e6f6e6578697374656e7420746f6b656e000000000000000000000000000000602082015250565b7f4552433732313a20617070726f76656420717565727920666f72206e6f6e657860008201527f697374656e7420746f6b656e0000000000000000000000000000000000000000602082015250565b7f4552433732313a207472616e73666572206f6620746f6b656e2074686174206960008201527f73206e6f74206f776e0000000000000000000000000000000000000000000000602082015250565b7f4552433732314d657461646174613a2055524920717565727920666f72206e6f60008201527f6e6578697374656e7420746f6b656e0000000000000000000000000000000000602082015250565b7f4552433732313a20617070726f76616c20746f2063757272656e74206f776e6560008201527f7200000000000000000000000000000000000000000000000000000000000000602082015250565b7f4552433732313a207472616e736665722063616c6c6572206973206e6f74206f60008201527f776e6572206e6f7220617070726f766564000000000000000000000000000000602082015250565b612c1e81612537565b8114612c2957600080fd5b50565b612c3581612549565b8114612c4057600080fd5b50565b612c4c81612555565b8114612c5757600080fd5b50565b612c63816125a1565b8114612c6e57600080fd5b5056fea264697066735822122030852840402f84cb6ce04acae661317e16d9272f245c13900c8e12ee27b7bf5c64736f6c63430008010033",
  "immutableReferences": {},
  "source": "pragma solidity >0.5.0;\n\nimport \"@openzeppelin/contracts/token/ERC721/extensions/ERC721URIStorage.sol\";\n\n// import \"@openzeppelin/contracts/utils/Counters.sol\";\n\n//this contract inherits ERC721\ncontract NFTify is ERC721URIStorage {\n    uint256 public tokenCounter;\n\n    // string public name;\n    // uint256 public imageCount = 0;\n    // mapping(uint256 => NFT) public nfts;\n\n    // struct NFT {\n    //     uint256 id;\n    //     string hash;\n    //     string description;\n    //     uint256 tipAmount;\n    //     address payable author;\n    // }\n\n    event NFTCreated(\n        uint256 id,\n        string hash,\n        string description\n    );\n\n    //constructor for an ERC721 is a name and symbol\n    constructor() public ERC721(\"astronaut\", \"STAR\") {\n        tokenCounter = 0;\n    }\n\n    //a token url is a ipfs url\n    //after we mint the token we are going to return the id of the token\n    function uploadImage(string memory _imgHash, string memory _description)\n        public\n        returns (address)\n    {\n        //get number from token counter\n        uint256 newNFTTokenId = tokenCounter;\n\n        //safely mint token for the person that called the function\n        _safeMint(msg.sender, newNFTTokenId);\n        require(_exists(newNFTTokenId));\n        // _mint(msg.sender, newNFTTokenId);\n\n        //set the token uri of the token id of the uri passed\n        _setTokenURI(newNFTTokenId, _imgHash);\n\n        //increment the counter\n        tokenCounter = tokenCounter + 1;\n\n        emit NFTCreated(newNFTTokenId, _imgHash, _description);\n\n        //return the token id\n        return ownerOf(newNFTTokenId);\n    }\n}\n",
  "sourcePath": "/Users/kathy/Dev/web3/nft-ify/src/contracts/nftify.sol",
  "compiler": {
    "name": "solc",
    "version": "0.8.1+commit.df193b15.Emscripten.clang"
  },
  "schemaVersion": "3.4.3",
  "updatedAt": "2021-12-05T18:57:24.151Z",
  "networkType": "ethereum",
  "devdoc": {
    "kind": "dev",
    "methods": {
      "approve(address,uint256)": {
        "details": "See {IERC721-approve}."
      },
      "balanceOf(address)": {
        "details": "See {IERC721-balanceOf}."
      },
      "getApproved(uint256)": {
        "details": "See {IERC721-getApproved}."
      },
      "isApprovedForAll(address,address)": {
        "details": "See {IERC721-isApprovedForAll}."
      },
      "name()": {
        "details": "See {IERC721Metadata-name}."
      },
      "ownerOf(uint256)": {
        "details": "See {IERC721-ownerOf}."
      },
      "safeTransferFrom(address,address,uint256)": {
        "details": "See {IERC721-safeTransferFrom}."
      },
      "safeTransferFrom(address,address,uint256,bytes)": {
        "details": "See {IERC721-safeTransferFrom}."
      },
      "setApprovalForAll(address,bool)": {
        "details": "See {IERC721-setApprovalForAll}."
      },
      "supportsInterface(bytes4)": {
        "details": "See {IERC165-supportsInterface}."
      },
      "symbol()": {
        "details": "See {IERC721Metadata-symbol}."
      },
      "tokenURI(uint256)": {
        "details": "See {IERC721Metadata-tokenURI}."
      },
      "transferFrom(address,address,uint256)": {
        "details": "See {IERC721-transferFrom}."
      }
    },
    "version": 1
  },
  "userdoc": {
    "kind": "user",
    "methods": {},
    "version": 1
  }
}