{
  "contractName": "NFTify",
  "abi": [
    {
      "inputs": [],
      "stateMutability": "nonpayable",
      "type": "constructor"
    },
    {
      "anonymous": false,
      "inputs": [
        {
          "indexed": true,
          "internalType": "address",
          "name": "owner",
          "type": "address"
        },
        {
          "indexed": true,
          "internalType": "address",
          "name": "approved",
          "type": "address"
        },
        {
          "indexed": true,
          "internalType": "uint256",
          "name": "tokenId",
          "type": "uint256"
        }
      ],
      "name": "Approval",
      "type": "event"
    },
    {
      "anonymous": false,
      "inputs": [
        {
          "indexed": true,
          "internalType": "address",
          "name": "owner",
          "type": "address"
        },
        {
          "indexed": true,
          "internalType": "address",
          "name": "operator",
          "type": "address"
        },
        {
          "indexed": false,
          "internalType": "bool",
          "name": "approved",
          "type": "bool"
        }
      ],
      "name": "ApprovalForAll",
      "type": "event"
    },
    {
      "anonymous": false,
      "inputs": [
        {
          "indexed": false,
          "internalType": "uint256",
          "name": "id",
          "type": "uint256"
        },
        {
          "indexed": false,
          "internalType": "string",
          "name": "hash",
          "type": "string"
        },
        {
          "indexed": false,
          "internalType": "string",
          "name": "description",
          "type": "string"
        }
      ],
      "name": "NFTCreated",
      "type": "event"
    },
    {
      "anonymous": false,
      "inputs": [
        {
          "indexed": true,
          "internalType": "address",
          "name": "from",
          "type": "address"
        },
        {
          "indexed": true,
          "internalType": "address",
          "name": "to",
          "type": "address"
        },
        {
          "indexed": true,
          "internalType": "uint256",
          "name": "tokenId",
          "type": "uint256"
        }
      ],
      "name": "Transfer",
      "type": "event"
    },
    {
      "inputs": [
        {
          "internalType": "address",
          "name": "to",
          "type": "address"
        },
        {
          "internalType": "uint256",
          "name": "tokenId",
          "type": "uint256"
        }
      ],
      "name": "approve",
      "outputs": [],
      "stateMutability": "nonpayable",
      "type": "function"
    },
    {
      "inputs": [
        {
          "internalType": "address",
          "name": "owner",
          "type": "address"
        }
      ],
      "name": "balanceOf",
      "outputs": [
        {
          "internalType": "uint256",
          "name": "",
          "type": "uint256"
        }
      ],
      "stateMutability": "view",
      "type": "function",
      "constant": true
    },
    {
      "inputs": [
        {
          "internalType": "uint256",
          "name": "tokenId",
          "type": "uint256"
        }
      ],
      "name": "getApproved",
      "outputs": [
        {
          "internalType": "address",
          "name": "",
          "type": "address"
        }
      ],
      "stateMutability": "view",
      "type": "function",
      "constant": true
    },
    {
      "inputs": [],
      "name": "imageCount",
      "outputs": [
        {
          "internalType": "uint256",
          "name": "",
          "type": "uint256"
        }
      ],
      "stateMutability": "view",
      "type": "function",
      "constant": true
    },
    {
      "inputs": [
        {
          "internalType": "address",
          "name": "owner",
          "type": "address"
        },
        {
          "internalType": "address",
          "name": "operator",
          "type": "address"
        }
      ],
      "name": "isApprovedForAll",
      "outputs": [
        {
          "internalType": "bool",
          "name": "",
          "type": "bool"
        }
      ],
      "stateMutability": "view",
      "type": "function",
      "constant": true
    },
    {
      "inputs": [],
      "name": "name",
      "outputs": [
        {
          "internalType": "string",
          "name": "",
          "type": "string"
        }
      ],
      "stateMutability": "view",
      "type": "function",
      "constant": true
    },
    {
      "inputs": [
        {
          "internalType": "uint256",
          "name": "",
          "type": "uint256"
        }
      ],
      "name": "nfts",
      "outputs": [
        {
          "internalType": "uint256",
          "name": "id",
          "type": "uint256"
        },
        {
          "internalType": "string",
          "name": "hash",
          "type": "string"
        },
        {
          "internalType": "string",
          "name": "description",
          "type": "string"
        }
      ],
      "stateMutability": "view",
      "type": "function",
      "constant": true
    },
    {
      "inputs": [
        {
          "internalType": "uint256",
          "name": "tokenId",
          "type": "uint256"
        }
      ],
      "name": "ownerOf",
      "outputs": [
        {
          "internalType": "address",
          "name": "",
          "type": "address"
        }
      ],
      "stateMutability": "view",
      "type": "function",
      "constant": true
    },
    {
      "inputs": [
        {
          "internalType": "address",
          "name": "from",
          "type": "address"
        },
        {
          "internalType": "address",
          "name": "to",
          "type": "address"
        },
        {
          "internalType": "uint256",
          "name": "tokenId",
          "type": "uint256"
        }
      ],
      "name": "safeTransferFrom",
      "outputs": [],
      "stateMutability": "nonpayable",
      "type": "function"
    },
    {
      "inputs": [
        {
          "internalType": "address",
          "name": "from",
          "type": "address"
        },
        {
          "internalType": "address",
          "name": "to",
          "type": "address"
        },
        {
          "internalType": "uint256",
          "name": "tokenId",
          "type": "uint256"
        },
        {
          "internalType": "bytes",
          "name": "_data",
          "type": "bytes"
        }
      ],
      "name": "safeTransferFrom",
      "outputs": [],
      "stateMutability": "nonpayable",
      "type": "function"
    },
    {
      "inputs": [
        {
          "internalType": "address",
          "name": "operator",
          "type": "address"
        },
        {
          "internalType": "bool",
          "name": "approved",
          "type": "bool"
        }
      ],
      "name": "setApprovalForAll",
      "outputs": [],
      "stateMutability": "nonpayable",
      "type": "function"
    },
    {
      "inputs": [],
      "name": "symbol",
      "outputs": [
        {
          "internalType": "string",
          "name": "",
          "type": "string"
        }
      ],
      "stateMutability": "view",
      "type": "function",
      "constant": true
    },
    {
      "inputs": [
        {
          "internalType": "uint256",
          "name": "index",
          "type": "uint256"
        }
      ],
      "name": "tokenByIndex",
      "outputs": [
        {
          "internalType": "uint256",
          "name": "",
          "type": "uint256"
        }
      ],
      "stateMutability": "view",
      "type": "function",
      "constant": true
    },
    {
      "inputs": [],
      "name": "tokenCounter",
      "outputs": [
        {
          "internalType": "uint256",
          "name": "",
          "type": "uint256"
        }
      ],
      "stateMutability": "view",
      "type": "function",
      "constant": true
    },
    {
      "inputs": [
        {
          "internalType": "address",
          "name": "owner",
          "type": "address"
        },
        {
          "internalType": "uint256",
          "name": "index",
          "type": "uint256"
        }
      ],
      "name": "tokenOfOwnerByIndex",
      "outputs": [
        {
          "internalType": "uint256",
          "name": "",
          "type": "uint256"
        }
      ],
      "stateMutability": "view",
      "type": "function",
      "constant": true
    },
    {
      "inputs": [],
      "name": "totalSupply",
      "outputs": [
        {
          "internalType": "uint256",
          "name": "",
          "type": "uint256"
        }
      ],
      "stateMutability": "view",
      "type": "function",
      "constant": true
    },
    {
      "inputs": [
        {
          "internalType": "address",
          "name": "from",
          "type": "address"
        },
        {
          "internalType": "address",
          "name": "to",
          "type": "address"
        },
        {
          "internalType": "uint256",
          "name": "tokenId",
          "type": "uint256"
        }
      ],
      "name": "transferFrom",
      "outputs": [],
      "stateMutability": "nonpayable",
      "type": "function"
    },
    {
      "inputs": [
        {
          "internalType": "uint256",
          "name": "tokenId",
          "type": "uint256"
        }
      ],
      "name": "tokenURI",
      "outputs": [
        {
          "internalType": "string",
          "name": "",
          "type": "string"
        }
      ],
      "stateMutability": "view",
      "type": "function",
      "constant": true
    },
    {
      "inputs": [
        {
          "internalType": "bytes4",
          "name": "interfaceId",
          "type": "bytes4"
        }
      ],
      "name": "supportsInterface",
      "outputs": [
        {
          "internalType": "bool",
          "name": "",
          "type": "bool"
        }
      ],
      "stateMutability": "view",
      "type": "function",
      "constant": true
    },
    {
      "inputs": [
        {
          "internalType": "string",
          "name": "_imgHash",
          "type": "string"
        },
        {
          "internalType": "string",
          "name": "_description",
          "type": "string"
        }
      ],
      "name": "uploadImage",
      "outputs": [
        {
          "internalType": "address",
          "name": "",
          "type": "address"
        }
      ],
      "stateMutability": "nonpayable",
      "type": "function"
    },
    {
      "inputs": [],
      "name": "getAllURIs",
      "outputs": [
        {
          "internalType": "string[]",
          "name": "",
          "type": "string[]"
        }
      ],
      "stateMutability": "nonpayable",
      "type": "function"
    }
  ],
  "bytecode": "0x60806040526000600c553480156200001657600080fd5b506040518060400160405280600981526020017f617374726f6e61757400000000000000000000000000000000000000000000008152506040518060400160405280600481526020017f535441520000000000000000000000000000000000000000000000000000000081525081600090805190602001906200009b929190620000c5565b508060019080519060200190620000b4929190620000c5565b5050506000600b81905550620001da565b828054620000d39062000175565b90600052602060002090601f016020900481019282620000f7576000855562000143565b82601f106200011257805160ff191683800117855562000143565b8280016001018555821562000143579182015b828111156200014257825182559160200191906001019062000125565b5b50905062000152919062000156565b5090565b5b808211156200017157600081600090555060010162000157565b5090565b600060028204905060018216806200018e57607f821691505b60208210811415620001a557620001a4620001ab565b5b50919050565b7f4e487b7100000000000000000000000000000000000000000000000000000000600052602260045260246000fd5b6138f480620001ea6000396000f3fe608060405234801561001057600080fd5b50600436106101375760003560e01c80636352211e116100b8578063a91b83141161007c578063a91b831414610376578063b88d4fde146103a6578063c87b56dd146103c2578063d082e381146103f2578063da815b8e14610410578063e985e9c51461042e57610137565b80636352211e146102be57806370a08231146102ee57806392053b631461031e57806395d89b411461033c578063a22cb4651461035a57610137565b806323b872dd116100ff57806323b872dd146101f4578063265aa621146102105780632f745c591461024257806342842e0e146102725780634f6ccce71461028e57610137565b806301ffc9a71461013c57806306fdde031461016c578063081812fc1461018a578063095ea7b3146101ba57806318160ddd146101d6575b600080fd5b6101566004803603810190610151919061269e565b61045e565b6040516101639190612c3a565b60405180910390f35b610174610470565b6040516101819190612c55565b60405180910390f35b6101a4600480360381019061019f919061275c565b610502565b6040516101b19190612bb1565b60405180910390f35b6101d460048036038101906101cf9190612662565b610587565b005b6101de61069f565b6040516101eb9190612eb7565b60405180910390f35b61020e6004803603810190610209919061255c565b6106ac565b005b61022a6004803603810190610225919061275c565b61070c565b60405161023993929190612ed2565b60405180910390f35b61025c60048036038101906102579190612662565b610846565b6040516102699190612eb7565b60405180910390f35b61028c6004803603810190610287919061255c565b6108eb565b005b6102a860048036038101906102a3919061275c565b61090b565b6040516102b59190612eb7565b60405180910390f35b6102d860048036038101906102d3919061275c565b6109a2565b6040516102e59190612bb1565b60405180910390f35b610308600480360381019061030391906124f7565b610a54565b6040516103159190612eb7565b60405180910390f35b610326610b0c565b6040516103339190612eb7565b60405180910390f35b610344610b12565b6040516103519190612c55565b60405180910390f35b610374600480360381019061036f9190612626565b610ba4565b005b610390600480360381019061038b91906126f0565b610bba565b60405161039d9190612bb1565b60405180910390f35b6103c060048036038101906103bb91906125ab565b610c4a565b005b6103dc60048036038101906103d7919061275c565b610cac565b6040516103e99190612c55565b60405180910390f35b6103fa610cbe565b6040516104079190612eb7565b60405180910390f35b610418610cc4565b6040516104259190612c18565b60405180910390f35b61044860048036038101906104439190612520565b610dce565b6040516104559190612c3a565b60405180910390f35b600061046982610e62565b9050919050565b60606000805461047f9061319c565b80601f01602080910402602001604051908101604052809291908181526020018280546104ab9061319c565b80156104f85780601f106104cd576101008083540402835291602001916104f8565b820191906000526020600020905b8154815290600101906020018083116104db57829003601f168201915b5050505050905090565b600061050d82610edc565b61054c576040517f08c379a000000000000000000000000000000000000000000000000000000000815260040161054390612df7565b60405180910390fd5b6004600083815260200190815260200160002060009054906101000a900473ffffffffffffffffffffffffffffffffffffffff169050919050565b6000610592826109a2565b90508073ffffffffffffffffffffffffffffffffffffffff168373ffffffffffffffffffffffffffffffffffffffff161415610603576040517f08c379a00000000000000000000000000000000000000000000000000000000081526004016105fa90612e57565b60405180910390fd5b8073ffffffffffffffffffffffffffffffffffffffff16610622610f48565b73ffffffffffffffffffffffffffffffffffffffff16148061065157506106508161064b610f48565b610dce565b5b610690576040517f08c379a000000000000000000000000000000000000000000000000000000000815260040161068790612d37565b60405180910390fd5b61069a8383610f50565b505050565b6000600880549050905090565b6106bd6106b7610f48565b82611009565b6106fc576040517f08c379a00000000000000000000000000000000000000000000000000000000081526004016106f390612e77565b60405180910390fd5b6107078383836110e7565b505050565b600d6020528060005260406000206000915090508060000154908060010180546107359061319c565b80601f01602080910402602001604051908101604052809291908181526020018280546107619061319c565b80156107ae5780601f10610783576101008083540402835291602001916107ae565b820191906000526020600020905b81548152906001019060200180831161079157829003601f168201915b5050505050908060020180546107c39061319c565b80601f01602080910402602001604051908101604052809291908181526020018280546107ef9061319c565b801561083c5780601f106108115761010080835404028352916020019161083c565b820191906000526020600020905b81548152906001019060200180831161081f57829003601f168201915b5050505050905083565b600061085183610a54565b8210610892576040517f08c379a000000000000000000000000000000000000000000000000000000000815260040161088990612c77565b60405180910390fd5b600660008473ffffffffffffffffffffffffffffffffffffffff1673ffffffffffffffffffffffffffffffffffffffff168152602001908152602001600020600083815260200190815260200160002054905092915050565b61090683838360405180602001604052806000815250610c4a565b505050565b600061091561069f565b8210610956576040517f08c379a000000000000000000000000000000000000000000000000000000000815260040161094d90612e97565b60405180910390fd5b60088281548110610990577f4e487b7100000000000000000000000000000000000000000000000000000000600052603260045260246000fd5b90600052602060002001549050919050565b6000806002600084815260200190815260200160002060009054906101000a900473ffffffffffffffffffffffffffffffffffffffff169050600073ffffffffffffffffffffffffffffffffffffffff168173ffffffffffffffffffffffffffffffffffffffff161415610a4b576040517f08c379a0000000000000000000000000000000000000000000000000000000008152600401610a4290612d77565b60405180910390fd5b80915050919050565b60008073ffffffffffffffffffffffffffffffffffffffff168273ffffffffffffffffffffffffffffffffffffffff161415610ac5576040517f08c379a0000000000000000000000000000000000000000000000000000000008152600401610abc90612d57565b60405180910390fd5b600360008373ffffffffffffffffffffffffffffffffffffffff1673ffffffffffffffffffffffffffffffffffffffff168152602001908152602001600020549050919050565b600c5481565b606060018054610b219061319c565b80601f0160208091040260200160405190810160405280929190818152602001828054610b4d9061319c565b8015610b9a5780601f10610b6f57610100808354040283529160200191610b9a565b820191906000526020600020905b815481529060010190602001808311610b7d57829003601f168201915b5050505050905090565b610bb6610baf610f48565b8383611343565b5050565b600080600b549050610bcc33826114b0565b610bd581610edc565b610bde57600080fd5b610be881856114ce565b6001600b54610bf7919061302b565b600b819055507f0508f820196a2b92c4bbd740d48c93c17741bfb305d1c06cd8f2d63803dc9626818585604051610c3093929190612ed2565b60405180910390a1610c41816109a2565b91505092915050565b610c5b610c55610f48565b83611009565b610c9a576040517f08c379a0000000000000000000000000000000000000000000000000000000008152600401610c9190612e77565b60405180910390fd5b610ca684848484611542565b50505050565b6060610cb78261159e565b9050919050565b600b5481565b60606000610cd133610a54565b905060008167ffffffffffffffff811115610d15577f4e487b7100000000000000000000000000000000000000000000000000000000600052604160045260246000fd5b604051908082528060200260200182016040528015610d4857816020015b6060815260200190600190039081610d335790505b50905060005b82811015610dc5576000610d623383610846565b9050610d6d81610cac565b838381518110610da6577f4e487b7100000000000000000000000000000000000000000000000000000000600052603260045260246000fd5b6020026020010181905250508080610dbd906131ff565b915050610d4e565b50809250505090565b6000600560008473ffffffffffffffffffffffffffffffffffffffff1673ffffffffffffffffffffffffffffffffffffffff16815260200190815260200160002060008373ffffffffffffffffffffffffffffffffffffffff1673ffffffffffffffffffffffffffffffffffffffff16815260200190815260200160002060009054906101000a900460ff16905092915050565b60007f780e9d63000000000000000000000000000000000000000000000000000000007bffffffffffffffffffffffffffffffffffffffffffffffffffffffff1916827bffffffffffffffffffffffffffffffffffffffffffffffffffffffff19161480610ed55750610ed4826116f0565b5b9050919050565b60008073ffffffffffffffffffffffffffffffffffffffff166002600084815260200190815260200160002060009054906101000a900473ffffffffffffffffffffffffffffffffffffffff1673ffffffffffffffffffffffffffffffffffffffff1614159050919050565b600033905090565b816004600083815260200190815260200160002060006101000a81548173ffffffffffffffffffffffffffffffffffffffff021916908373ffffffffffffffffffffffffffffffffffffffff160217905550808273ffffffffffffffffffffffffffffffffffffffff16610fc3836109a2565b73ffffffffffffffffffffffffffffffffffffffff167f8c5be1e5ebec7d5bd14f71427d1e84f3dd0314c0f7b2291e5b200ac8c7c3b92560405160405180910390a45050565b600061101482610edc565b611053576040517f08c379a000000000000000000000000000000000000000000000000000000000815260040161104a90612d17565b60405180910390fd5b600061105e836109a2565b90508073ffffffffffffffffffffffffffffffffffffffff168473ffffffffffffffffffffffffffffffffffffffff1614806110cd57508373ffffffffffffffffffffffffffffffffffffffff166110b584610502565b73ffffffffffffffffffffffffffffffffffffffff16145b806110de57506110dd8185610dce565b5b91505092915050565b8273ffffffffffffffffffffffffffffffffffffffff16611107826109a2565b73ffffffffffffffffffffffffffffffffffffffff161461115d576040517f08c379a000000000000000000000000000000000000000000000000000000000815260040161115490612e17565b60405180910390fd5b600073ffffffffffffffffffffffffffffffffffffffff168273ffffffffffffffffffffffffffffffffffffffff1614156111cd576040517f08c379a00000000000000000000000000000000000000000000000000000000081526004016111c490612cd7565b60405180910390fd5b6111d88383836117d2565b6111e3600082610f50565b6001600360008573ffffffffffffffffffffffffffffffffffffffff1673ffffffffffffffffffffffffffffffffffffffff168152602001908152602001600020600082825461123391906130b2565b925050819055506001600360008473ffffffffffffffffffffffffffffffffffffffff1673ffffffffffffffffffffffffffffffffffffffff168152602001908152602001600020600082825461128a919061302b565b92505081905550816002600083815260200190815260200160002060006101000a81548173ffffffffffffffffffffffffffffffffffffffff021916908373ffffffffffffffffffffffffffffffffffffffff160217905550808273ffffffffffffffffffffffffffffffffffffffff168473ffffffffffffffffffffffffffffffffffffffff167fddf252ad1be2c89b69c2b068fc378daa952ba7f163c4a11628f55a4df523b3ef60405160405180910390a4505050565b8173ffffffffffffffffffffffffffffffffffffffff168373ffffffffffffffffffffffffffffffffffffffff1614156113b2576040517f08c379a00000000000000000000000000000000000000000000000000000000081526004016113a990612cf7565b60405180910390fd5b80600560008573ffffffffffffffffffffffffffffffffffffffff1673ffffffffffffffffffffffffffffffffffffffff16815260200190815260200160002060008473ffffffffffffffffffffffffffffffffffffffff1673ffffffffffffffffffffffffffffffffffffffff16815260200190815260200160002060006101000a81548160ff0219169083151502179055508173ffffffffffffffffffffffffffffffffffffffff168373ffffffffffffffffffffffffffffffffffffffff167f17307eab39ab6107e8899845ad3d59bd9653f200f220920489ca2b5937696c31836040516114a39190612c3a565b60405180910390a3505050565b6114ca8282604051806020016040528060008152506117e2565b5050565b6114d782610edc565b611516576040517f08c379a000000000000000000000000000000000000000000000000000000000815260040161150d90612d97565b60405180910390fd5b80600a6000848152602001908152602001600020908051906020019061153d92919061231b565b505050565b61154d8484846110e7565b6115598484848461183d565b611598576040517f08c379a000000000000000000000000000000000000000000000000000000000815260040161158f90612c97565b60405180910390fd5b50505050565b60606115a982610edc565b6115e8576040517f08c379a00000000000000000000000000000000000000000000000000000000081526004016115df90612dd7565b60405180910390fd5b6000600a600084815260200190815260200160002080546116089061319c565b80601f01602080910402602001604051908101604052809291908181526020018280546116349061319c565b80156116815780601f1061165657610100808354040283529160200191611681565b820191906000526020600020905b81548152906001019060200180831161166457829003601f168201915b5050505050905060006116926119d4565b90506000815114156116a85781925050506116eb565b6000825111156116dd5780826040516020016116c5929190612b8d565b604051602081830303815290604052925050506116eb565b6116e6846119eb565b925050505b919050565b60007f80ac58cd000000000000000000000000000000000000000000000000000000007bffffffffffffffffffffffffffffffffffffffffffffffffffffffff1916827bffffffffffffffffffffffffffffffffffffffffffffffffffffffff191614806117bb57507f5b5e139f000000000000000000000000000000000000000000000000000000007bffffffffffffffffffffffffffffffffffffffffffffffffffffffff1916827bffffffffffffffffffffffffffffffffffffffffffffffffffffffff1916145b806117cb57506117ca82611a92565b5b9050919050565b6117dd838383611afc565b505050565b6117ec8383611c10565b6117f9600084848461183d565b611838576040517f08c379a000000000000000000000000000000000000000000000000000000000815260040161182f90612c97565b60405180910390fd5b505050565b600061185e8473ffffffffffffffffffffffffffffffffffffffff16611dde565b156119c7578373ffffffffffffffffffffffffffffffffffffffff1663150b7a02611887610f48565b8786866040518563ffffffff1660e01b81526004016118a99493929190612bcc565b602060405180830381600087803b1580156118c357600080fd5b505af19250505080156118f457506040513d601f19601f820116820180604052508101906118f191906126c7565b60015b611977573d8060008114611924576040519150601f19603f3d011682016040523d82523d6000602084013e611929565b606091505b5060008151141561196f576040517f08c379a000000000000000000000000000000000000000000000000000000000815260040161196690612c97565b60405180910390fd5b805181602001fd5b63150b7a0260e01b7bffffffffffffffffffffffffffffffffffffffffffffffffffffffff1916817bffffffffffffffffffffffffffffffffffffffffffffffffffffffff1916149150506119cc565b600190505b949350505050565b606060405180602001604052806000815250905090565b60606119f682610edc565b611a35576040517f08c379a0000000000000000000000000000000000000000000000000000000008152600401611a2c90612e37565b60405180910390fd5b6000611a3f6119d4565b90506000815111611a5f5760405180602001604052806000815250611a8a565b80611a6984611df1565b604051602001611a7a929190612b8d565b6040516020818303038152906040525b915050919050565b60007f01ffc9a7000000000000000000000000000000000000000000000000000000007bffffffffffffffffffffffffffffffffffffffffffffffffffffffff1916827bffffffffffffffffffffffffffffffffffffffffffffffffffffffff1916149050919050565b611b07838383611f9e565b600073ffffffffffffffffffffffffffffffffffffffff168373ffffffffffffffffffffffffffffffffffffffff161415611b4a57611b4581611fa3565b611b89565b8173ffffffffffffffffffffffffffffffffffffffff168373ffffffffffffffffffffffffffffffffffffffff1614611b8857611b878382611fec565b5b5b600073ffffffffffffffffffffffffffffffffffffffff168273ffffffffffffffffffffffffffffffffffffffff161415611bcc57611bc781612159565b611c0b565b8273ffffffffffffffffffffffffffffffffffffffff168273ffffffffffffffffffffffffffffffffffffffff1614611c0a57611c09828261229c565b5b5b505050565b600073ffffffffffffffffffffffffffffffffffffffff168273ffffffffffffffffffffffffffffffffffffffff161415611c80576040517f08c379a0000000000000000000000000000000000000000000000000000000008152600401611c7790612db7565b60405180910390fd5b611c8981610edc565b15611cc9576040517f08c379a0000000000000000000000000000000000000000000000000000000008152600401611cc090612cb7565b60405180910390fd5b611cd5600083836117d2565b6001600360008473ffffffffffffffffffffffffffffffffffffffff1673ffffffffffffffffffffffffffffffffffffffff1681526020019081526020016000206000828254611d25919061302b565b92505081905550816002600083815260200190815260200160002060006101000a81548173ffffffffffffffffffffffffffffffffffffffff021916908373ffffffffffffffffffffffffffffffffffffffff160217905550808273ffffffffffffffffffffffffffffffffffffffff16600073ffffffffffffffffffffffffffffffffffffffff167fddf252ad1be2c89b69c2b068fc378daa952ba7f163c4a11628f55a4df523b3ef60405160405180910390a45050565b600080823b905060008111915050919050565b60606000821415611e39576040518060400160405280600181526020017f30000000000000000000000000000000000000000000000000000000000000008152509050611f99565b600082905060005b60008214611e6b578080611e54906131ff565b915050600a82611e649190613081565b9150611e41565b60008167ffffffffffffffff811115611ead577f4e487b7100000000000000000000000000000000000000000000000000000000600052604160045260246000fd5b6040519080825280601f01601f191660200182016040528015611edf5781602001600182028036833780820191505090505b5090505b60008514611f9257600182611ef891906130b2565b9150600a85611f079190613248565b6030611f13919061302b565b60f81b818381518110611f4f577f4e487b7100000000000000000000000000000000000000000000000000000000600052603260045260246000fd5b60200101907effffffffffffffffffffffffffffffffffffffffffffffffffffffffffffff1916908160001a905350600a85611f8b9190613081565b9450611ee3565b8093505050505b919050565b505050565b6008805490506009600083815260200190815260200160002081905550600881908060018154018082558091505060019003906000526020600020016000909190919091505550565b60006001611ff984610a54565b61200391906130b2565b90506000600760008481526020019081526020016000205490508181146120e8576000600660008673ffffffffffffffffffffffffffffffffffffffff1673ffffffffffffffffffffffffffffffffffffffff168152602001908152602001600020600084815260200190815260200160002054905080600660008773ffffffffffffffffffffffffffffffffffffffff1673ffffffffffffffffffffffffffffffffffffffff168152602001908152602001600020600084815260200190815260200160002081905550816007600083815260200190815260200160002081905550505b6007600084815260200190815260200160002060009055600660008573ffffffffffffffffffffffffffffffffffffffff1673ffffffffffffffffffffffffffffffffffffffff16815260200190815260200160002060008381526020019081526020016000206000905550505050565b6000600160088054905061216d91906130b2565b90506000600960008481526020019081526020016000205490506000600883815481106121c3577f4e487b7100000000000000000000000000000000000000000000000000000000600052603260045260246000fd5b90600052602060002001549050806008838154811061220b577f4e487b7100000000000000000000000000000000000000000000000000000000600052603260045260246000fd5b906000526020600020018190555081600960008381526020019081526020016000208190555060096000858152602001908152602001600020600090556008805480612280577f4e487b7100000000000000000000000000000000000000000000000000000000600052603160045260246000fd5b6001900381819060005260206000200160009055905550505050565b60006122a783610a54565b905081600660008573ffffffffffffffffffffffffffffffffffffffff1673ffffffffffffffffffffffffffffffffffffffff168152602001908152602001600020600083815260200190815260200160002081905550806007600084815260200190815260200160002081905550505050565b8280546123279061319c565b90600052602060002090601f0160209004810192826123495760008555612390565b82601f1061236257805160ff1916838001178555612390565b82800160010185558215612390579182015b8281111561238f578251825591602001919060010190612374565b5b50905061239d91906123a1565b5090565b5b808211156123ba5760008160009055506001016123a2565b5090565b60006123d16123cc84612f3c565b612f17565b9050828152602081018484840111156123e957600080fd5b6123f484828561315a565b509392505050565b600061240f61240a84612f6d565b612f17565b90508281526020810184848401111561242757600080fd5b61243284828561315a565b509392505050565b60008135905061244981613862565b92915050565b60008135905061245e81613879565b92915050565b60008135905061247381613890565b92915050565b60008151905061248881613890565b92915050565b600082601f83011261249f57600080fd5b81356124af8482602086016123be565b91505092915050565b600082601f8301126124c957600080fd5b81356124d98482602086016123fc565b91505092915050565b6000813590506124f1816138a7565b92915050565b60006020828403121561250957600080fd5b60006125178482850161243a565b91505092915050565b6000806040838503121561253357600080fd5b60006125418582860161243a565b92505060206125528582860161243a565b9150509250929050565b60008060006060848603121561257157600080fd5b600061257f8682870161243a565b93505060206125908682870161243a565b92505060406125a1868287016124e2565b9150509250925092565b600080600080608085870312156125c157600080fd5b60006125cf8782880161243a565b94505060206125e08782880161243a565b93505060406125f1878288016124e2565b925050606085013567ffffffffffffffff81111561260e57600080fd5b61261a8782880161248e565b91505092959194509250565b6000806040838503121561263957600080fd5b60006126478582860161243a565b92505060206126588582860161244f565b9150509250929050565b6000806040838503121561267557600080fd5b60006126838582860161243a565b9250506020612694858286016124e2565b9150509250929050565b6000602082840312156126b057600080fd5b60006126be84828501612464565b91505092915050565b6000602082840312156126d957600080fd5b60006126e784828501612479565b91505092915050565b6000806040838503121561270357600080fd5b600083013567ffffffffffffffff81111561271d57600080fd5b612729858286016124b8565b925050602083013567ffffffffffffffff81111561274657600080fd5b612752858286016124b8565b9150509250929050565b60006020828403121561276e57600080fd5b600061277c848285016124e2565b91505092915050565b60006127918383612865565b905092915050565b6127a2816130e6565b82525050565b60006127b382612fae565b6127bd8185612fdc565b9350836020820285016127cf85612f9e565b8060005b8581101561280b57848403895281516127ec8582612785565b94506127f783612fcf565b925060208a019950506001810190506127d3565b50829750879550505050505092915050565b612826816130f8565b82525050565b600061283782612fb9565b6128418185612fed565b9350612851818560208601613169565b61285a81613335565b840191505092915050565b600061287082612fc4565b61287a8185612ffe565b935061288a818560208601613169565b61289381613335565b840191505092915050565b60006128a982612fc4565b6128b3818561300f565b93506128c3818560208601613169565b6128cc81613335565b840191505092915050565b60006128e282612fc4565b6128ec8185613020565b93506128fc818560208601613169565b80840191505092915050565b6000612915602b8361300f565b915061292082613346565b604082019050919050565b600061293860328361300f565b915061294382613395565b604082019050919050565b600061295b601c8361300f565b9150612966826133e4565b602082019050919050565b600061297e60248361300f565b91506129898261340d565b604082019050919050565b60006129a160198361300f565b91506129ac8261345c565b602082019050919050565b60006129c4602c8361300f565b91506129cf82613485565b604082019050919050565b60006129e760388361300f565b91506129f2826134d4565b604082019050919050565b6000612a0a602a8361300f565b9150612a1582613523565b604082019050919050565b6000612a2d60298361300f565b9150612a3882613572565b604082019050919050565b6000612a50602e8361300f565b9150612a5b826135c1565b604082019050919050565b6000612a7360208361300f565b9150612a7e82613610565b602082019050919050565b6000612a9660318361300f565b9150612aa182613639565b604082019050919050565b6000612ab9602c8361300f565b9150612ac482613688565b604082019050919050565b6000612adc60298361300f565b9150612ae7826136d7565b604082019050919050565b6000612aff602f8361300f565b9150612b0a82613726565b604082019050919050565b6000612b2260218361300f565b9150612b2d82613775565b604082019050919050565b6000612b4560318361300f565b9150612b50826137c4565b604082019050919050565b6000612b68602c8361300f565b9150612b7382613813565b604082019050919050565b612b8781613150565b82525050565b6000612b9982856128d7565b9150612ba582846128d7565b91508190509392505050565b6000602082019050612bc66000830184612799565b92915050565b6000608082019050612be16000830187612799565b612bee6020830186612799565b612bfb6040830185612b7e565b8181036060830152612c0d818461282c565b905095945050505050565b60006020820190508181036000830152612c3281846127a8565b905092915050565b6000602082019050612c4f600083018461281d565b92915050565b60006020820190508181036000830152612c6f818461289e565b905092915050565b60006020820190508181036000830152612c9081612908565b9050919050565b60006020820190508181036000830152612cb08161292b565b9050919050565b60006020820190508181036000830152612cd08161294e565b9050919050565b60006020820190508181036000830152612cf081612971565b9050919050565b60006020820190508181036000830152612d1081612994565b9050919050565b60006020820190508181036000830152612d30816129b7565b9050919050565b60006020820190508181036000830152612d50816129da565b9050919050565b60006020820190508181036000830152612d70816129fd565b9050919050565b60006020820190508181036000830152612d9081612a20565b9050919050565b60006020820190508181036000830152612db081612a43565b9050919050565b60006020820190508181036000830152612dd081612a66565b9050919050565b60006020820190508181036000830152612df081612a89565b9050919050565b60006020820190508181036000830152612e1081612aac565b9050919050565b60006020820190508181036000830152612e3081612acf565b9050919050565b60006020820190508181036000830152612e5081612af2565b9050919050565b60006020820190508181036000830152612e7081612b15565b9050919050565b60006020820190508181036000830152612e9081612b38565b9050919050565b60006020820190508181036000830152612eb081612b5b565b9050919050565b6000602082019050612ecc6000830184612b7e565b92915050565b6000606082019050612ee76000830186612b7e565b8181036020830152612ef9818561289e565b90508181036040830152612f0d818461289e565b9050949350505050565b6000612f21612f32565b9050612f2d82826131ce565b919050565b6000604051905090565b600067ffffffffffffffff821115612f5757612f56613306565b5b612f6082613335565b9050602081019050919050565b600067ffffffffffffffff821115612f8857612f87613306565b5b612f9182613335565b9050602081019050919050565b6000819050602082019050919050565b600081519050919050565b600081519050919050565b600081519050919050565b6000602082019050919050565b600082825260208201905092915050565b600082825260208201905092915050565b600082825260208201905092915050565b600082825260208201905092915050565b600081905092915050565b600061303682613150565b915061304183613150565b9250827fffffffffffffffffffffffffffffffffffffffffffffffffffffffffffffffff0382111561307657613075613279565b5b828201905092915050565b600061308c82613150565b915061309783613150565b9250826130a7576130a66132a8565b5b828204905092915050565b60006130bd82613150565b91506130c883613150565b9250828210156130db576130da613279565b5b828203905092915050565b60006130f182613130565b9050919050565b60008115159050919050565b60007fffffffff0000000000000000000000000000000000000000000000000000000082169050919050565b600073ffffffffffffffffffffffffffffffffffffffff82169050919050565b6000819050919050565b82818337600083830152505050565b60005b8381101561318757808201518184015260208101905061316c565b83811115613196576000848401525b50505050565b600060028204905060018216806131b457607f821691505b602082108114156131c8576131c76132d7565b5b50919050565b6131d782613335565b810181811067ffffffffffffffff821117156131f6576131f5613306565b5b80604052505050565b600061320a82613150565b91507fffffffffffffffffffffffffffffffffffffffffffffffffffffffffffffffff82141561323d5761323c613279565b5b600182019050919050565b600061325382613150565b915061325e83613150565b92508261326e5761326d6132a8565b5b828206905092915050565b7f4e487b7100000000000000000000000000000000000000000000000000000000600052601160045260246000fd5b7f4e487b7100000000000000000000000000000000000000000000000000000000600052601260045260246000fd5b7f4e487b7100000000000000000000000000000000000000000000000000000000600052602260045260246000fd5b7f4e487b7100000000000000000000000000000000000000000000000000000000600052604160045260246000fd5b6000601f19601f8301169050919050565b7f455243373231456e756d657261626c653a206f776e657220696e646578206f7560008201527f74206f6620626f756e6473000000000000000000000000000000000000000000602082015250565b7f4552433732313a207472616e7366657220746f206e6f6e20455243373231526560008201527f63656976657220696d706c656d656e7465720000000000000000000000000000602082015250565b7f4552433732313a20746f6b656e20616c7265616479206d696e74656400000000600082015250565b7f4552433732313a207472616e7366657220746f20746865207a65726f2061646460008201527f7265737300000000000000000000000000000000000000000000000000000000602082015250565b7f4552433732313a20617070726f766520746f2063616c6c657200000000000000600082015250565b7f4552433732313a206f70657261746f7220717565727920666f72206e6f6e657860008201527f697374656e7420746f6b656e0000000000000000000000000000000000000000602082015250565b7f4552433732313a20617070726f76652063616c6c6572206973206e6f74206f7760008201527f6e6572206e6f7220617070726f76656420666f7220616c6c0000000000000000602082015250565b7f4552433732313a2062616c616e636520717565727920666f7220746865207a6560008201527f726f206164647265737300000000000000000000000000000000000000000000602082015250565b7f4552433732313a206f776e657220717565727920666f72206e6f6e657869737460008201527f656e7420746f6b656e0000000000000000000000000000000000000000000000602082015250565b7f45524337323155524953746f726167653a2055524920736574206f66206e6f6e60008201527f6578697374656e7420746f6b656e000000000000000000000000000000000000602082015250565b7f4552433732313a206d696e7420746f20746865207a65726f2061646472657373600082015250565b7f45524337323155524953746f726167653a2055524920717565727920666f722060008201527f6e6f6e6578697374656e7420746f6b656e000000000000000000000000000000602082015250565b7f4552433732313a20617070726f76656420717565727920666f72206e6f6e657860008201527f697374656e7420746f6b656e0000000000000000000000000000000000000000602082015250565b7f4552433732313a207472616e73666572206f6620746f6b656e2074686174206960008201527f73206e6f74206f776e0000000000000000000000000000000000000000000000602082015250565b7f4552433732314d657461646174613a2055524920717565727920666f72206e6f60008201527f6e6578697374656e7420746f6b656e0000000000000000000000000000000000602082015250565b7f4552433732313a20617070726f76616c20746f2063757272656e74206f776e6560008201527f7200000000000000000000000000000000000000000000000000000000000000602082015250565b7f4552433732313a207472616e736665722063616c6c6572206973206e6f74206f60008201527f776e6572206e6f7220617070726f766564000000000000000000000000000000602082015250565b7f455243373231456e756d657261626c653a20676c6f62616c20696e646578206f60008201527f7574206f6620626f756e64730000000000000000000000000000000000000000602082015250565b61386b816130e6565b811461387657600080fd5b50565b613882816130f8565b811461388d57600080fd5b50565b61389981613104565b81146138a457600080fd5b50565b6138b081613150565b81146138bb57600080fd5b5056fea264697066735822122062822affcaa772b099b59fdbdd5f5155bff2ea127f1978529039e1829061c98364736f6c63430008010033",
  "immutableReferences": {},
  "source": "pragma solidity >0.5.0;\n\nimport \"@openzeppelin/contracts/token/ERC721/extensions/ERC721URIStorage.sol\";\nimport \"@openzeppelin/contracts/token/ERC721/extensions/ERC721Enumerable.sol\";\n\n\n//this contract inherits ERC721\ncontract NFTify is ERC721Enumerable, ERC721URIStorage {\n    uint256 public tokenCounter;\n\n    uint256 public imageCount = 0;\n    mapping(uint256 => NFT) public nfts;\n\n    struct NFT {\n        uint256 id;\n        string hash;\n        string description;\n    }\n\n    event NFTCreated(\n        uint256 id,\n        string hash,\n        string description\n    );\n\n    //constructor for an ERC721 is a name and symbol\n    constructor() public ERC721(\"astronaut\", \"STAR\") {\n        tokenCounter = 0;\n    }\n\n    function _beforeTokenTransfer(address from, address to, uint256 tokenId)\n        internal\n        override(ERC721, ERC721Enumerable)\n    {\n        super._beforeTokenTransfer(from, to, tokenId);\n    }\n\n    function _burn(uint256 tokenId) internal override(ERC721, ERC721URIStorage) {\n        super._burn(tokenId);\n    }\n\n    function tokenURI(uint256 tokenId)\n        public\n        view\n        override(ERC721, ERC721URIStorage)\n        returns (string memory)\n    {\n        return super.tokenURI(tokenId);\n    }\n\n    function supportsInterface(bytes4 interfaceId)\n        public\n        view\n        override(ERC721, ERC721Enumerable)\n        returns (bool)\n    {\n        return super.supportsInterface(interfaceId);\n    }\n\n    //a token url is a ipfs url\n    //after we mint the token we are going to return the id of the token\n    function uploadImage(string memory _imgHash, string memory _description)\n        public\n        returns (address)\n    {\n        //get number from token counter\n        uint256 newNFTTokenId = tokenCounter;\n\n        //safely mint token for the person that called the function\n        _safeMint(msg.sender, newNFTTokenId);\n        require(_exists(newNFTTokenId));\n        // _mint(msg.sender, newNFTTokenId);\n\n        //set the token uri of the token id of the uri passed\n        _setTokenURI(newNFTTokenId, _imgHash);\n\n        //increment the counter\n        tokenCounter = tokenCounter + 1;\n\n        emit NFTCreated(newNFTTokenId, _imgHash, _description);\n\n        //return the token id\n        return ownerOf(newNFTTokenId);\n    }\n\n    function getAllURIs() public returns (string[] memory) {\n        // string[] storage uris;\n        uint numTokens = balanceOf(msg.sender);\n        string[] memory uris = new string[](numTokens);\n        for (uint i = 0; i < numTokens; i++) {\n            uint tokenId = tokenOfOwnerByIndex(msg.sender, i);\n            uris[i] = (tokenURI(tokenId));\n        }\n        return uris;\n    }\n\n    \n}\n",
  "sourcePath": "/Users/grozensmith/developer/nft-ify/src/contracts/nftify.sol",
  "compiler": {
    "name": "solc",
    "version": "0.8.1+commit.df193b15.Emscripten.clang"
  },
  "schemaVersion": "3.4.3",
  "updatedAt": "2021-12-05T20:58:18.365Z",
  "networkType": "ethereum",
  "devdoc": {
    "kind": "dev",
    "methods": {
      "approve(address,uint256)": {
        "details": "See {IERC721-approve}."
      },
      "balanceOf(address)": {
        "details": "See {IERC721-balanceOf}."
      },
      "getApproved(uint256)": {
        "details": "See {IERC721-getApproved}."
      },
      "isApprovedForAll(address,address)": {
        "details": "See {IERC721-isApprovedForAll}."
      },
      "name()": {
        "details": "See {IERC721Metadata-name}."
      },
      "ownerOf(uint256)": {
        "details": "See {IERC721-ownerOf}."
      },
      "safeTransferFrom(address,address,uint256)": {
        "details": "See {IERC721-safeTransferFrom}."
      },
      "safeTransferFrom(address,address,uint256,bytes)": {
        "details": "See {IERC721-safeTransferFrom}."
      },
      "setApprovalForAll(address,bool)": {
        "details": "See {IERC721-setApprovalForAll}."
      },
      "symbol()": {
        "details": "See {IERC721Metadata-symbol}."
      },
      "tokenByIndex(uint256)": {
        "details": "See {IERC721Enumerable-tokenByIndex}."
      },
      "tokenOfOwnerByIndex(address,uint256)": {
        "details": "See {IERC721Enumerable-tokenOfOwnerByIndex}."
      },
      "totalSupply()": {
        "details": "See {IERC721Enumerable-totalSupply}."
      },
      "transferFrom(address,address,uint256)": {
        "details": "See {IERC721-transferFrom}."
      }
    },
    "version": 1
  },
  "userdoc": {
    "kind": "user",
    "methods": {},
    "version": 1
  }
}